:100BC700010E0B010B0B01090B010D0B011C0B0196
:100BD7000A0B010C0B01080B0D0FC0F9A4B0999279
:070BE70082F88090BFFFC6F9
:100D49008D3075A0C0758001120DF775A0C0758032
:0F0D59000275A0FF740F2530F8E6F580020E0139
:100D68008D3075A0C0758004120DF775A0C0758010
:0F0D78000875A0FF740F2530F8E6F580020E0114
:100D87008D3075A0C0758010120DF775A0C07580E5
:0F0D97002075A0FF740F2530F8E6F580020E01DD
:100DA6008D3075A0C0758040120DF775A0C0758096
:0F0DB6008075A0FF740F2530F8E6F580020E015E
:0A0DF70075A0FF740F2FF8E6F580D9
:0A0E01007F167E800000DEFEDFFC9D
:010E0B0022C4
:0F0BEE00011F00011E00011D00C101C100C10255
:10067A00C2C2C2C475B00FE5B0640F70030208E1CC
:10068A00120E01E5B0640F70030208E1AFB0EF2467
:10069A00F9601A24FC601124FE6008147012751F98
:1006AA0001800D751F058008751F098003751F0DD0
:1006BA0075B0F0D2C2D2C430C4FD20C202051F30C8
:1006CA00C2FDE5B0B4D004051F051FE5B064D060D3
:1006DA00FAE5B0B4E0067403251FF51FE5B064E03F
:1006EA0060FAE51F24FE70030207D724FD60301468
:1006FA00700302085B24FD604A1470030208CF24C9
:10070A00FD60561470030208DE240D60030208E13E
:10071A00200103D201222001030208E1C2012220A2
:10072A000005D200C201222000030208E1C200AD86
:10073A0028E4FF120E0C120E01AD277F01120E0CD7
:10074A00020E01E51E7006751E01C20022E51E6436
:10075A000160030208E1F51E22300122E51D700244
:10076A00805BE51DB401028023E51DB40204751DFA
:10077A000322E51D640360030208E1F51D2230002F
:10078A001BE51D70028036E51DB40104751D0222A9
:10079A00E51D640260030208E1F51D22E51EB401AD
:1007AA0012E51D70028016E51D640160030208E16E
:1007BA00F51D222002030208E1E51D7004751D01E2
:1007CA0022E51D640160030208E1F51D223001459E
:1007DA00E51DB40111052BD3E52B648094974019CC
:1007EA00752B1702089CE51DB40211052AC3E52AD8
:1007FA00648094BB4003752A3B02089CE51D640390
:10080A0060030208E10529C3E529648094BB40031B
:10081A0075293B807D2000030208E1E51DB401141F
:10082A0074052528F528D36480949450030208E1BE
:10083A0075281422E51D640260030208E174052587
:10084A0027F527D36480949450030208E17527148E
:10085A0022300141E51DB40110152BD3E52B64802C
:10086A0094805003E4F52B8029E51DB40210152A63
:10087A00D3E52A648094805003E4F52A8014E51DA8
:10088A00640370531529D3E529648094805003E4E6
:10089A00F529020D0330003FE51DB4011174FB2553
:1008AA0028F528C364809480502DE4F52822E51D9C
:1008BA006402702374FB2527F527C3648094805053
:1008CA0016E4F52722300206C202E4F51E222002AF
:0808DA0006D20222750E07226E
:100BFD0004210000000001281401270A01260A0122
:020C0D002500C0
:10000300120DC5120D03E4FF120DDE8F28120E012F
:100013007F01120DDE8F27120E01120D2620010320
:1000230002013CE51D7002803BE51D64017020E583
:100033002975F0021205BFAFF0EF6401700280244E
:10004300EF600302013C750E0B750B0B0200D1E54B
:100053001D6402704CE52975F0021205BFAFF0EF85
:1000630064017017E52B75F00A1205BFF50EE52B39
:1000730075F00A1205BF85F00B8053EF6003020190
:100083003CE52B75F00A1205BFF50EE52B75F00A5A
:100093001205BF85F00B75090A750D0B751C0B80D6
:1000A30045E51D6403600302013CE52975F0021276
:1000B30005BFAFF0EF64017047E52B75F00A120539
:1000C300BFF50EE52B75F00A1205BF85F00B750918
:1000D3000AE52A75F00A1205BFF50DE52A75F00A3F
:1000E3001205BF85F01C750A0AE52975F00A120589
:1000F300BFF50CE52975F00A1205BF85F0088039B4
:10010300EF7036E52B75F00A1205BFF50EE52B757A
:10011300F00A1205BF85F00B75090AE52A75F00A86
:100123001205BFF50DE52A75F00A1205BF85F01C0F
:10013300750A0A750C0B75080B2000030202A3E570
:100143001D70437F03120C19E4FBFA7920784112E6
:10015300035A8F248E238D228C21750E0A750B0171
:1001630075090A750D0B12053EAB07AA067C007DC7
:100173000A1205E18F1C7C007D0AAF03AE02120553
:10018300E18D0A02026BE51D64016003020214E5BE
:100193002975F0021205BFAFF0EF64017042E52844
:1001A30075F00A1205BFFE75F00A1205BF85F00E41
:1001B300E52875F00A1205BF85F00BE4F509F50D86
:1001C300E52775F00A1205BFFE75F00A1205BF8513
:1001D300F01CE52775F00A1205BF85F00A02026BD1
:1001E300EF60030202A3750E0B750B0B75090B75FC
:1001F3000D0BE52775F00A1205BFFF75F00A12050E
:10020300BF85F01CE52775F00A1205BF85F00A804B
:1002130057E51D640260030202A3E52975F002128B
:1002230005BFAFF0EF64017046E52875F00A1205CB
:10023300BFFE75F00A1205BF85F00EE52875F00ABA
:100243001205BF85F00BE4F509F50DE52775F00AF6
:100253001205BFFE75F00A1205BF85F01CE5277570
:10026300F00A1205BF85F00AE4F50CF5088031EFBA
:10027300702EE52875F00A1205BFFF75F00A120506
:10028300BF85F00EE52875F00A1205BF85F00BE473
:10029300F509F50D751C0B750A0B750C0B75080B21
:1002A300E51E64017046E51D7028750E0A750B0284
:1002B30075090AF50DE52675F00A8475F00A84853B
:1002C300F01CE52675F00A8485F00AE4F50CF508C0
:1002D300801AE51DB40115750E0A750B0275090A1E
:1002E300E4F50DF51CF50AF50C750801300246E539
:1002F3001D702A750E0B750B0B75090B750D0B75A0
:100303001C0B750A0BE52575F00A8475F00A8485C4
:10031300F00CE52575F00A8485F0088018E51DB416
:100323000113E4F50EF50B75090AF50DF51C750AB5
:100333000AF50CF50812067AAD0BAF0E120D49AD96
:100343000DAF09120D68AD0AAF1C120D87AD08AFD2
:070353000C120DA602001DB3
:100DC50075A0A0E4F58075A0807580FF75A0C0753D
:090DD50080FF75A0FF7580FF226C
:090C0F000729373B170000000023
:100E2100E4FEC297EF1392A3EFC313FFD2970EBE56
:020E310008F0C7
:010E3300229C
:100CDF00C29300C29700D29300120E21ED75F00A55
:100CEF0084C454F0FFED75F00A84E5F04FFF120E47
:040CFF0021C2932259
:100C6700E4FDC29300C29700D29300120E21E4FF65
:100C7700C297EDC313FD30A303430580D2970FBF7F
:100C870008EEC29300C293C29700D29700C2A30096
:100C9700D2A300EDC4540FFFED540FFEEF75F00A19
:030CA700A42EFF79
:010CAA002227
:100D03007C80E4FD7F8E120CDFE4FBAF0474292B9F
:100D1300F8E6FD120CDF0C0C0BBB07EF7D807F8E1A
:030D2300020CDFE0
:100D26007C81E4FD7F8E120CDFE4FBAF04120C67BE
:100D360074292BF8A6070C0C0BBB07EF7D807F8E62
:030D4600020CDFBD
:100B6400D2A1D2A00000000000000000000000009C
:100B74000000000000000000000000000000000071
:100B84000000000000000000000000000000000061
:100B940000C2A100000000000000000000000000EE
:100BA4000000000000000000000000000000000041
:100BB4000000000000000000000000000000000031
:030BC400C2A022AA
:100CAB00C2A1D2A000000000000000000000000064
:100CBB000000000000000000000000000000000029
:100CCB000000000000000000000000000000000019
:040CDB0000D2A12280
:1008E200300304C2A18002D2A10000000000000077
:1008F20000000000000000000000000000000000F6
:1009020000000000000000000000000000000000E5
:10091200000000000000D2A0000000000000000063
:1009220000000000000000000000000000000000C5
:1009320000000000000000000000000000000000B5
:100942000000000000C2A0D2A100000000000000D0
:100952000000000000000000000000000000000095
:100962000000000000000000000000000000000085
:07097200000000000000225C
:0B0A0500120AF1120A10AF05120AF1EC
:100A1000D2A1000000000000000000000000000063
:100A200000000000000000000000000000000000C6
:100A3000000000000000000000000000000000D2E4
:100A4000A000000000000000000000000000000006
:100A50000000000000000000000000000000000096
:100A6000000000000000000000000000000030A1B5
:0C0A700007C2A0120CABC322C2A0D3220C
:100AF100E4FEEF30E704D2A18002C2A100000000B1
:100B010000000000000000000000000000000000E4
:100B110000000000000000000000000000000000D4
:100B2100000000000000000000D2A0EF25E0FF005F
:100B310000000000000000000000000000000000B4
:100B410000000000000000000000000000000000A4
:100B5100000000000000000000000000C2A00EBE66
:020B61000890FA
:010B6300226F
:060A7C00120AF1120A103B
:100A8200E4FED2A000000000000000000000000010
:100A92000000000000000000000000000000000054
:100AA2000000000000000000000000000000000044
:100AB20000EF25E0FF30A103430701C2A0000000C0
:100AC2000000000000000000000000000000000024
:100AD2000000000000000000000000000000000014
:0E0AE200000000000000000000000EBE08949E
:010AF00022E3
:020C1900AD0725
:100C1B00120B647F90120A05120CAB120B647F91BE
:100C2B00120A7CAC07E412050A8F338E328D318C9D
:100C3B0030120A10120CABE4FFFE7DA07C40AB33EC
:100C4B00AA32A931A83012035AE4FBFA797F784310
:0B0C5B001204638F338E328D318C3019
:010C6600226B
:100E0C00AC07120B647FA0120AF1120A10AF041285
:050E1C000A05020CAB09
:020DDE00AD075F
:100DE000120B647FA0120A05120CAB120B647FA1D8
:060DF000120A7C120CAB9C
:010DF60022DA
:10035A00EC4D6011E8497017ED33EC3304600DE49D
:10036A00FCFFFEFD22E933E8330470F80205AA1205
:10037A00057558046009E4CC248150062850090206
:10038A0005B42840030205B1C0E0EB4A7044B980C5
:10039A0006D0E0FB0205A0EF4E701CBD8008EBFF03
:1003AA00EAFEE9FD80EBE98DF0A4FEE5F0020443E4
:1003BA00E9CDF9EAFEEBFFEF89F0A4FCE5F0CE897E
:1003CA00F0A42EFFE435F0CD89F0A42DFEE435F03B
:1003DA008067EF4E7005BD80D780C3EF8BF0A4AC69
:1003EA00F0EE8BF0A42CFCE435F0F8EF8AF0A42CA4
:1003FA00E5F038FCE433CB8DF0A42CFCE5F03BF8B7
:10040A00EE8AF0A42CFCE5F038F8E433CF89F0A4A6
:10041A002CFCE5F038CF3400CE89F0A42FFFE5F0AC
:10042A003EFEE433C98DF0A42EFEE5F039CD8AF004
:10043A00A42FFFE5F03EFEE43DFD33D0E0FB50077C
:10044A000BBB000F0205B4EC2CFCEF33FFEE33FEBE
:06045A00ED33FD02058CEC
:100460000205B4EC5D046005E8590470030205AAB6
:10047000120575580460F6EC4860F2EC7004FDFE5D
:10048000FF22C860DB2481C85009C398600250066F
:100490000205B19850CAF582E9294B4A7005AB8232
:1004A0000205A075F0007C1A7880C3EF9BEE9AEDF0
:1004B00099400DC3EF9BFFEE9AFEED99FDE842F0E7
:1004C000DC23ACF0D0E0FFD0E0FED0E0FDAB82203A
:1004D000E7101BEB60BAEC2CFCEF33FFEE33FEEDC4
:1004E00033FD02058CE803F830E705C0F075F00035
:1004F000EF2FFFEE33FEED33FD40B830E7C280AAA8
:1005000075F020800E75F010800575F0087D007E76
:10051000007F003392D530D503120617EC3340101C
:10052000EF33FFEE33FEED33FDEC33FCD5F0ED227F
:0E053000E5F0247EA2D513CC92E7CDCEFF22BB
:10053E00EDD2E7CD33EC3392D524814006E4FFFEB5
:10054E00FDFC22FCE4CFCECDCC24E0501174FF8014
:10055E00EDC3CC13CCCD13CDCE13CECF13CF0470B1
:07056E00F030D5DE02061794
:10057500E9D2E7C933E833F892D5EDD2E7CD33ECCC
:0705850033FC5002B2D52245
:10058C00EC30E7100FBF000C0EBE00080DBD0004D0
:10059C000BEB6014A2D5EB13FCED92E7FD2274FF7C
:1005AC00FCFDFEFF22E480F8A2D574FF13FC7D80D5
:0305BC00E480EFE9
:0300000002097979
:0C097900787FE4F6D8FD7581330209C0D8
:1005BF00C2D530F707B2D563F0FF05F030E70CB2C4
:1005CF00D5F4048463F0FF05F080018430D502F484
:0205DF000422F4
:1005E100C2D5EC30E709B2D5E4C39DFDE49CFCEE35
:1005F10030E715B2D5E4C39FFFE49EFE120625C382
:10060100E49DFDE49CFC800312062530D507C3E47C
:060611009FFFE49EFE22A3
:0E061700C3E49FFFE49EFEE49DFDE49CFC22F4
:10098500020003E493A3F8E493A34003F68001F285
:1009950008DFF48029E493A3F85407240CC8C33373
:1009A500C4540F4420C8834004F456800146F6DF42
:1009B500E4800B0102040810204080900BC7E47E00
:1009C500019360BCA3FF543F30E509541FFEE49337
:1009D500A360010ECF54C025E060A840B8E493A3FE
:1009E500FAE493A3F8E493A3C8C582C8CAC583CA29
:1009F500F0A3C8C582C8CAC583CADFE9DEE780BEE1
:010C180000DB
:10062500BC000BBE0029EF8DF084FFADF022E4CCB9
:10063500F875F008EF2FFFEE33FEEC33FCEE9DEC82
:10064500984005FCEE9DFE0FD5F0E9E4CEFD22EDC8
:10065500F8F5F0EE8420D21CFEADF075F008EF2F12
:10066500FFED33FD4007985006D5F0F222C398FD03
:050675000FD5F0EA22A0
:00000001FF
