:1007BF001029C0F9A4B0999282F88090BFFF7FC131
:1007CF008EC601280B01250B01220B01270B0139C6
:0D07DF000B01240B01260B01210B01230B44
:1008BD008D1975A0C07580011209C075A0C0758015
:0F08CD000275A0FF74292519F8E6F5800209CA03
:1008DC008D1975A0C07580041209C075A0C07580F3
:0F08EC000875A0FF74292519F8E6F5800209CADE
:1008FB008D1975A0C07580101209C075A0C07580C8
:0F090B002075A0FF74292519F8E6F5800209CAA6
:10091A008D1975A0C07580401209C075A0C0758078
:0F092A008075A0FF74292519F8E6F5800209CA27
:1009EA0075A0C08F8075A0FF74292DF8E6F58002E6
:0209FA0009CA28
:0A09C00075A0FF74292FF8E6F580FA
:0A09CA007F167E800000DEFEDFFCD9
:0109D4002200
:10071B00D2A1D2A0000000000000000000000000E9
:10072B0000000000000000000000000000000000BE
:10073B00000000000000000000000000C2A100004B
:10074B00000000000000000000000000000000009E
:10075B00000000000000000000000000000000008E
:09076B00000000000000C2A02201
:10083B00C2A1D2A0000000000000000000000000D8
:10084B00000000000000000000000000000000009D
:0F085B00000000000000000000000000D2A122F9
:10055200300004C2A18002D2A1000000000000000D
:100562000000000000000000000000000000000089
:100572000000000000000000000000000000000079
:1005820000D2A000000000000000000000000000F7
:100592000000000000000000000000000000000059
:1005A2000000000000000000000000C2A0D2A10074
:1005B2000000000000000000000000000000000039
:1005C2000000000000000000000000000000000029
:0805D2000000000000000022FF
:0B05DA001206B21205E5AF051206B2D2
:1005E500D2A1000000000000000000000000000093
:1005F50000000000000000000000000000000000F6
:1006050000000000000000000000D2A00000000073
:1006150000000000000000000000000000000000D5
:1006250000000000000000000000000000000000C5
:100635000000000030A107C2A012083BC322C2A0DF
:02064500D322BE
:1006B200E4FEEF30E704D2A18002C2A100000000F4
:1006C2000000000000000000000000000000000028
:1006D2000000000000000000000000000000000018
:1006E20000000000D2A0EF25E0FF000000000000A3
:1006F20000000000000000000000000000000000F8
:1007020000000000000000000000000000000000E7
:080712000000C2A00EBE089A0F
:01071A0022BC
:060647001206B21205E5E7
:10064D00E4FED2A000000000000000000000000049
:10065D00000000000000000000000000000000008D
:10066D00000000000000000000000000EF25E0FF8A
:10067D0030A103430701C2A00000000000000000EC
:10068D00000000000000000000000000000000005D
:10069D00000000000000000000000000000000004D
:0406AD000EBE089ED7
:0106B1002226
:02077400AD07CF
:1007760012071B7F901205DA12083B12071B7F91A6
:10078600120647AC07E41201B38F1C8E1B8D1A8C20
:100796001912083BE4FFFE7DA07C40AB1CAA1BA9F6
:1007A6001AA819120003E4FBFA797F784312010CA8
:0807B6008F1C8E1B8D1A8C199B
:0107BE002218
:1009D500AC0712071B7FA01206B21205E5AF041281
:0509E50005DA02083BE9
:02095700AD07EA
:1009590012071B7FA01205DA12083B12071B7FA1A1
:090969001206471205E512083BD5
:010972002262
:0C07EC00011800011700011600011500A3
:1004160020B00B1209CA30B0030204C580F820B11F
:10042600301209CA20B125E5177005751701801C21
:10043600E517B401057517028012E517B4020575B4
:1004460017038008E517B40303E4F51720B170809D
:10045600FB20B23D1209CA20B232AD09E4FF1209EF
:10046600D5AF0DAE0CAD0BAC0A1201E7AD077F019F
:100476001209D5AF14AE13AD12AC111201E7AD07D8
:100486007F031209D5AD107F041209D520B2308042
:10049600FB20B32B1209CA20B322E515700280197E
:1004A600E515B401057515028012E515B40205754A
:1004B60015038008E515B4030375150130B3FD2255
:0A07F800041100000000020F0020B1
:1002CB001209A7E515701E75280B75250B75220BEA
:1002DB0075270B75390B75240B75260B75210B7553
:1002EB00230B0203EDE515640170577F03120774AE
:1002FB008F148E138D128C11E4FBFA792078411236
:10030B0000038F148E138D128C1175280D75250B10
:10031B0075220B75270B75390B75240B1201E7AB87
:10032B0007AA067C007D0A1202688F267C007D0AD4
:10033B00AF03AE021202688D2175230C750E4002BD
:10034B0003EDE5156402703175280E75250B7522CA
:10035B000BAE0FAF10FC7D0A1202688F27AE0FAFEA
:10036B00107C007D0A1202688D39E4F524F526F520
:10037B002175230B750EFF8069E5156403706312FD
:10038B00098D8E088F0912086A8F0D8E0C8D0B8CC0
:10039B000A75280F75250B75220B75270BAE08AF49
:1003AB00097C007D0A1202688F39AE08AF097C0008
:1003BB007D0A1202688D24AF0DAE0CAD0BAC0A1288
:1003CB0001E7AB07AA067C007D0A1202688F267C28
:1003DB00007D0AAF03AE021202688D2175230C75E6
:1003EB000E20120416AD25AF281208BDAD27AF2283
:1003FB001208DCAD24AF391208FBAD21AF26120970
:0B040B001AAD23AF0E1209EA0202CE68
:1009A70075A0A0E4F58075A0807580FF75A0C0755F
:0909B70080FF75A0FF7580FF228E
:040973007F057E007E
:10097700EF1FAA0670011E4A600BE4FDEDC3940C3D
:0509870050EE0D80F7A9
:01098C002248
:02093900A9070C
:10093B00E4FBC294E9139294120973D294E9C313A2
:0C094B00F90BBB08ED7F057E0002097768
:0F0894007FCC1209397FBE1209391208A3A907B8
:1008A300E4FBC294ECC313FCD2943094034304805E
:0908B3001209730BBB08EBAF0442
:0108BC002219
:100803007FCC1209397F441209397F647E001209B3
:01081300776D
:10081400C201D2947F0C7E00120977C2947F507E6D
:1008240000120977D2947F0A7E00120977A294926B
:0608340001120973A2018C
:01083A00229B
:10098D00120814120803120894EF75F010A4FFAEAC
:09099D00F0E9C4540FFDEF4DFF19
:0109A600222E
:10086A001208141208031208948F19E9540F75F02C
:10087A0064A4FFE5F0C4F854F0C868FEEFC4540F4E
:09088A0048FFFDAC06E41201AECA
:010893002242
:10000300EC4D6011E8497017ED33EC3304600DE4F7
:10001300FCFFFEFD22E933E8330470F802025312B9
:10002300021E58046009E4CC2481500628500902BA
:10003300025D28400302025AC0E0EB4A7044B980D3
:1000430006D0E0FB020249EF4E701CBD8008EBFFB7
:10005300EAFEE9FD80EBE98DF0A4FEE5F00200EC99
:10006300E9CDF9EAFEEBFFEF89F0A4FCE5F0CE89D8
:10007300F0A42EFFE435F0CD89F0A42DFEE435F095
:100083008067EF4E7005BD80D780C3EF8BF0A4ACC3
:10009300F0EE8BF0A42CFCE435F0F8EF8AF0A42CFE
:1000A300E5F038FCE433CB8DF0A42CFCE5F03BF811
:1000B300EE8AF0A42CFCE5F038F8E433CF89F0A401
:1000C3002CFCE5F038CF3400CE89F0A42FFFE5F007
:1000D3003EFEE433C98DF0A42EFEE5F039CD8AF05F
:1000E300A42FFFE5F03EFEE43DFD33D0E0FB5007D7
:1000F3000BBB000F02025DEC2CFCEF33FFEE33FE73
:06010300ED33FD020235A0
:1001090002025DEC5D046005E859047003020253C4
:1001190012021E580460F6EC4860F2EC7004FDFE11
:10012900FF22C860DB2481C85009C39860025006C9
:1001390002025A9850CAF582E9294B4A7005AB82E6
:1001490002024975F0007C1A7880C3EF9BEE9AEDA4
:1001590099400DC3EF9BFFEE9AFEED99FDE842F041
:10016900DC23ACF0D0E0FFD0E0FED0E0FDAB822094
:10017900E7101BEB60BAEC2CFCEF33FFEE33FEED1E
:1001890033FD020235E803F830E705C0F075F000E9
:10019900EF2FFFEE33FEED33FD40B830E7C280AA02
:1001A90075F020800E75F010800575F0087D007ED1
:1001B900007F003392D530D5031202BDEC334010D5
:1001C900EF33FFEE33FEED33FDEC33FCD5F0ED22DA
:0E01D900E5F0247EA2D513CC92E7CDCEFF2216
:1001E700EDD2E7CD33EC3392D524814006E4FFFE10
:1001F700FDFC22FCE4CFCECDCC24E0501174FF806F
:10020700EDC3CC13CCCD13CDCE13CECF13CF04700B
:07021700F030D5DE0202BD4C
:10021E00E9D2E7C933E833F892D5EDD2E7CD33EC26
:07022E0033FC5002B2D5229F
:10023500EC30E7100FBF000C0EBE00080DBD00042A
:100245000BEB6014A2D5EB13FCED92E7FD2274FFD6
:10025500FCFDFEFF22E480F8A2D574FF13FC7D802F
:03026500E480EF43
:030000000204C631
:0C04C600787FE4F6D8FD75813902050D41
:10026800BC000BBE0029EF8DF084FFADF022E4CC7A
:10027800F875F008EF2FFFEE33FEEC33FCEE9DEC43
:10028800984005FCEE9DFE0FD5F0E9E4CEFD22ED89
:10029800F8F5F0EE8420D21CFEADF075F008EF2FD3
:1002A800FFED33FD4007985006D5F0F222C398FDC4
:0502B8000FD5F0EA2261
:0E02BD00C3E49FFFE49EFEE49DFDE49CFC2252
:1004D2000202CBE493A3F8E493A34003F68001F273
:1004E20008DFF48029E493A3F85407240CC8C3332B
:1004F200C4540F4420C8834004F456800146F6DFFA
:10050200E4800B01020408102040809007BFE47EC3
:10051200019360BCA3FF543F30E509541FFEE493EE
:10052200A360010ECF54C025E060A840B8E493A3B5
:10053200FAE493A3F8E493A3C8C582C8CAC583CAE0
:10054200F0A3C8C582C8CAC583CADFE9DEE780BE98
:0108020000F5
:00000001FF
