:10067B00C1021C25C0F9A4B0999282F8809088839E
:10068B00C6A1868EFFBF4079243019120278001064
:10069B0008591010101010101010012200C1040185
:1006AB005610015800015701C100C1060142000E4E
:0F06BB00470050005900230025000100060018D9
:10075400E5A0541F4480F5A07580FF53A01FE5A0B9
:10076400541F44A0F5A0C284C28653A01FE5A05420
:100774001F44C0F5A07580FF53A01FE5A0541F447B
:0A078400E0F5A07580FF53A01F22CE
:10089800E5A0541F4480300707F5A07580FE800549
:0908A800F5A07580FF53A01F228A
:1008B100E5A0541F4480300707F5A07580FD800531
:0908C100F5A07580FF53A01F2271
:1006CB00E5A0541F44E0F5A07580FF53A01FE5A0E3
:1006DB00541F44C0F5A0AF227401A807088002C3C1
:1006EB0033D8FCF58053A01FE5A0541F44E0F5A0C0
:1006FB0074592522F8E62425F8E6F58053A01F054A
:0A070B0022E522B40803E4F52222DF
:1008E200438901758CF8758A2FD2A9D28CD2AF2296
:03000B0002062BBF
:10062B00C0E0C0D075D000C000C0070546E54670DD
:10063B000205453002080564E56470020563758C9C
:10064B00F8758A2F1206CBE546646445457006F5AE
:10065B0045F546D201E564B4C40DE563B4090875EC
:10066B006300756400D205D007D000D0D0D0E03243
:0808F2007F6C7E91DEFEDFFC4D
:0108FA0022DB
:10000E0020B02F1208F220B026755607300209D202
:10001E00071208B1C204C202D200C2060558E55842
:10002E00B40403E4F558E5587005C2001207153004
:10003E00B0FD20B12C1208F220B123755606300205
:10004E0009D2071208B1C204C202C200D206055775
:10005E00E557B40403E4F557E5577002C20630B114
:10006E00FD30B2030201A61208F230B2030201A360
:10007E00300209D2071208B1C204C20220000302E4
:10008E000168E55824FE6050147003020128240212
:10009E006003020168E544C4540F75F00AA4FFE53D
:1000AE0044540F2FF5420542E54275F00A8475F06F
:1000BE0010A4FFAEF0E54275F00A847C00EF25F047
:1000CE00F54CEC3EF54BE54C6424454B7004F54B7A
:1000DE00F54C854C44020168E555C4540F75F00A81
:1000EE00A4FFE555540F2FF5420542E54275F00A7F
:1000FE008475F010A4FFAEF0E54275F00A847C0022
:10010E00EF25F0F54AEC3EF549E54A646045497045
:10011E0004F549F54A854A558040E543C4540F75A8
:10012E00F00AA4FFE543540F2FF5420542E5427550
:10013E00F00A8475F010A4FFAEF0E54275F00A8463
:10014E007C00EF25F0F548EC3EF547E54864604548
:10015E00477004F547F548854843300638E557247F
:10016E00FE60161460222402702B0566E566B41834
:10017E0003E4F566856644801C0521E521B43C0345
:10018E00E4F521852155800D0565E565B46003E430
:10019E00F56585654330B2FD30B30302030F1208D7
:1001AE00F230B30302030C755604300209D2071263
:1001BE0008B1C204C20220002F20062C75591075FA
:1001CE005A10755B10755C10755D10AE61AF627C78
:1001DE00007D0A1205D68F5EAE61AF627C007D0A8D
:1001EE001205D68D5F75600C2000030202D1E55812
:1001FE0024FE604F14700302029224026003020276
:10020E00D1E544C4540F75F00AA4FFE544540F2FF2
:10021E00F5421542E54275F00A8475F010A4FFAE62
:10022E00F0E54275F00A847C00EF25F0F54CEC3ECB
:10023E00F54BE542B4FF06754B00754C23854C44D7
:10024E000202D1E555C4540F75F00AA4FFE55554CA
:10025E000F2FF5421542E54275F00A8475F010A491
:10026E00FFAEF0E54275F00A847C00EF25F0F54A0A
:10027E00EC3EF549E542B4FF06754900754A5985CD
:10028E004A55803FE543C4540F75F00AA4FFE54379
:10029E00540F2FF5421542E54275F00A8475F010A1
:1002AE00A4FFAEF0E54275F00A847C00EF25F0F570
:1002BE0048EC3EF547E542B4FF06754700754859D0
:1002CE00854843300638E55724FE60161460222414
:1002DE0002702B1566E566B4FF03756617856644D6
:1002EE00801C1521E521B4FF0375213B8521558026
:1002FE000D1565E565B4FF0375653B85654330B344
:02030E00FD22CE
:04087E007F057E0074
:10088200EF1FAA0670011E4A600BE4FDEDC3940C33
:0508920050EE0D80F79F
:01089700223E
:1007C300C207D2947F0C7E00120882C2947F507EAF
:1007D30000120882D2947F0A7E00120882A29492A9
:0607E3000712087EA207C8
:0107E90022ED
:02080E00A90738
:10081000E4FBC29400E913929412087ED294E9C3D7
:0D08200013F90BBB08EC7F057E0002088277
:10082D00E4FBC29400ECC313FCD294309403430454
:0A083D008012087E0BBB08EAAF042E
:01084700228E
:10078E001207C37FCC12080E7F4412080E7FC87E5C
:10079E00001208821207C37FCC12080E7FBE120809
:1007AE000E12082DA90712082DEFC454F0FFE9C44C
:0407BE00540F4FFF86
:0107C2002214
:10084800C297E4FEEF30E004D2A38002C2A3D2979D
:0A085800C297EFC313FF0EBE08EABB
:010862002273
:10086300E4FFFEEFC313FF30A30543078080035368
:0A087300077FD297C2970EBE08E976
:01087D002258
:1008CA00AE07C293C297D2935306FEAF06120848E8
:0808DA00AF05120848C2932289
:1007EA007F841207FA8F247F821207FA8F417F8053
:1007FA00C293C297D293430701120848120863C2F0
:03080A0093C2A3F3
:01080D0022C8
:10071500E4FD7F8E1208CAAD487F801208CAAD4A33
:100725007F821208CAAD4C7F841208CAAD4E7F86FF
:100735001208CAAD507F881208CAAD527F8A1208C6
:0F074500CAAD547F8C1208CA7D807F8E0208CA0D
:100310001207541208E21207151207EA8F238523E9
:100320004385415585244412000EA2049207120809
:1003300098300127C201300202B20412078E7561A3
:10034000008F621207EA8F23E5436523600DE558AD
:1003500070098523438541558524443000030204F8
:1003600005300603020405E543C4540F75F00AA4E2
:10037000FFE543540F7C002FFFEC35F0FEEF656581
:100380007001EE703FE555C4540F75F00AA4FFE507
:1003900055540F2FFFEC35F0FEEFB52127ECB506D5
:1003A00023E544C4540F75F00AA4FFAEF0E544758C
:1003B000F00A84EF25F0FFEC3EFEEFB56606ECB5E3
:1003C0000602D20230050BC205D2071208B1C204E0
:1003D000C202E55B6410602DE544C4540FF559E595
:1003E00044540FF55A755B11E555C4540FF55CE59F
:1003F00055540FF55D755E11E543C4540FF55FE587
:1004000043540FF560E52320E013E558B4010E30A6
:10041000000B200608755910755A108018E5233016
:10042000E01330001020060DE544C4540FF559E5E3
:1004300044540FF55A755B11E52320E013E558B4D9
:10044000020E30000B200608755C10755D108018D8
:10045000E52330E01330001020060DE555C4540F9D
:10046000F55CE555540FF55D755E11E52320E0134D
:10047000E558B4030E30000B200608755F10756058
:10048000108018E52330E01330001020060DE543FE
:10049000C4540FF55FE543540FF560E52320E013E6
:1004A000E557B4010E20000B300608755910755A37
:1004B00010801CE52330E017200014300611E5669B
:1004C00075F00A84F559E56675F00A8485F05A7569
:1004D0005B11E52320E013E557B4020E20000B303A
:1004E0000608755C10755D10801CE52330E0172050
:1004F0000014300611E52175F00A84F55CE52175DC
:10050000F00A8485F05D755E11E52320E014E5575F
:10051000B4030F20000C300609755F1075601002DF
:100520000327E52320E0030203273000030203270B
:10053000200603020327E56575F00A84F55FE5658B
:0A05400075F00A8485F060020327BD
:0300000002054AAC
:0C054A00787FE4F6D8FD7581660205910B
:1005D600BC000BBE0029EF8DF084FFADF022E4CC09
:1005E600F875F008EF2FFFEE33FEEC33FCEE9DECD2
:1005F600984005FCEE9DFE0FD5F0E9E4CEFD22ED18
:10060600F8F5F0EE8420D21CFEADF075F008EF2F61
:10061600FFED33FD4007985006D5F0F222C398FD52
:050626000FD5F0EA22EF
:10055600020310E493A3F8E493A34003F68001F2A8
:1005660008DFF48029E493A3F85407240CC8C333A6
:10057600C4540F4420C8834004F456800146F6DF75
:10058600E4800B010204081020408090067BE47E84
:10059600019360BCA3FF543F30E509541FFEE4936A
:1005A600A360010ECF54C025E060A840B8E493A331
:1005B600FAE493A3F8E493A3C8C582C8CAC583CA5C
:1005C600F0A3C8C582C8CAC583CADFE9DEE780BE14
:0106CA00002F
:00000001FF
