:10070000C0F9A4B0999282F88090BFFF407924305C
:0607100019122078001010
:100585001206E712071675130BE4F50E750C05F543
:1005950012F515750D01F511F50B7F011206378F53
:1005A50008E508C39440500875A0807580FE800654
:1005B50075A0807580FF12034DAD0EAF1312065B5B
:1005C500AD12AF0C12067EAD0DAF151206A1AD0B27
:0705D500AF111206C480C340
:10071600438E805389F0E4F58A758C28C28DD28C7D
:0107260022B0
:03000B00020236B8
:10023600C0E0C0F0C083C082C0D075D000C000C08E
:1002460001C002C003C004C005C006C0070514E50E
:100256001464146003020332F5140510E5107002ED
:10026600050FAE0FFF7C037DE81201D38F15AE0F8D
:10027600AF107C037DE81201D37E007F64CFCDCF23
:10028600CECCCE1201D38F0DAE0FAF107C007D64A5
:100296001201D37E007F0ACFCDCFCECCCE1201D3B2
:1002A6008F11AE0FAF107C007D0A1201D38D0BC3E8
:1002B600E510940FE50F94274072C2A9C2AF75A04E
:1002C600A0758000AC0FAD10E4120119E4FBFAF939
:1002D600783F12000E1201528E098F0A7C037DE8C8
:1002E6001201D38F15AE09AF0A7C037DE81201D344
:1002F6007E007F64CFCDCFCECCCE1201D38F0DAE94
:1003060009AF0A7C007D641201D37E007F0ACFCD3F
:10031600CFCECCCE1201D38F11AE09AF0A7C007DB1
:100326000A1201D38D0B750F00751000D007D00689
:10033600D005D004D003D002D001D000D0D0D082D6
:07034600D083D0F0D0E032BB
:10034D0020B0257F057E0012061920B013E4F515A7
:10035D00F50DF511F50B75A0A0758010D2A9D2AFD2
:10036D0030B0030203F880F830B1030203F87F05C3
:10037D007E0012061920B170C2A9C2AF75A0A0E40B
:10038D00F580AC0FAD10120119E4FBFAF9783F12AC
:10039D00000E1201528E098F0A7C037DE81201D3E3
:1003AD008F15AE09AF0A7C037DE81201D37E007F65
:1003BD0064CFCDCFCECCCE1201D38F0DAE09AF0A07
:1003CD007C007D641201D37E007F0ACFCDCFCECCD1
:1003DD00CE1201D38F11AE09AF0A7C007D0A120136
:0C03ED00D38D0BE4F50FF51030B1FD22AC
:10052C00D2A1D2A0000000000000000000000000DA
:10053C0000000000000000000000000000000000AF
:10054C00000000000000000000000000C2A100003C
:10055C00000000000000000000000000000000008F
:10056C00000000000000000000000000000000007F
:09057C00000000000000C2A022F2
:1005DC00C2A1D2A00000000000000000000000003A
:1005EC0000000000000000000000000000000000FF
:0F05FC00000000000000000000000000D2A1225B
:030462001203F989
:10046500D2A1000000000000000000000000000014
:100475000000000000000000000000000000000077
:1004850000000000000000000000D2A000000000F5
:100495000000000000000000000000000000000057
:1004A5000000000000000000000000000000000047
:1004B5000000000030A107C2A01205DCC322C2A0C3
:0204C500D32240
:1003F900E4FEEF30E704D2A18002C2A100000000B0
:1004090000000000000000000000000000000000E3
:1004190000000000000000000000000000000000D3
:1004290000000000D2A0EF25E0FF0000000000005E
:1004390000000000000000000000000000000000B3
:1004490000000000000000000000000000000000A3
:080459000000C2A00EBE089ACB
:010461002278
:1004C700E4FED2A0000000000000000000000000D1
:1004D7000000000000000000000000000000000015
:1004E700000000000000000000000000EF25E0FF12
:1004F70030A103430701C2A0000000000000000074
:1005070000000000000000000000000000000000E4
:1005170000000000000000000000000000000000D4
:040527000EBE089E5E
:01052B0022AD
:02063700AD070D
:1006390012052C7F90120462AF051204621205DCC8
:1006490012052C7F911203F91204651204C71205D1
:01065900DCC4
:01065A00227D
:1006E70075A0A0E4F58075A0807580FF75A0C07522
:0906F70080FF75A0FF7580FF2251
:10065B008D1675A0C075800112060B75A0C0758034
:10066B000275A0FFE51690070C93F5807F017E00C5
:03067B000206195B
:10067E008D1675A0C075800412060B75A0C075800E
:10068E000875A0FFE51690070093F5807F017E00A8
:03069E0002061938
:1006A1008D1675A0C075801012060B75A0C07580DF
:1006B1002075A0FFE51690070C93F5807F017E0061
:0306C10002061915
:1006C4008D1675A0C075804012060B75A0C075808C
:1006D4008075A0FFE51690070093F5807F017E00EA
:0306E400020619F2
:0E060B0075A0FFEF90070093F5807F017E0041
:10061900D3EF9400EE940040147D4D7C03ED1D70E2
:0D062900011CED4C70F7EF1F70E61E80E322
:0106360022A1
:10000E00EC4D6011E8497017ED33EC3304600DE4EC
:10001E00FCFFFEFD22E933E8330470F80201BE1244
:10002E00018958046009E4CC248150062850090245
:10003E0001C82840030201C5C0E0EB4A7044B980F4
:10004E0006D0E0FB0201B4EF4E701CBD8008EBFF42
:10005E00EAFEE9FD80EBE98DF0A4FEE5F00200F783
:10006E00E9CDF9EAFEEBFFEF89F0A4FCE5F0CE89CD
:10007E00F0A42EFFE435F0CD89F0A42DFEE435F08A
:10008E008067EF4E7005BD80D780C3EF8BF0A4ACB8
:10009E00F0EE8BF0A42CFCE435F0F8EF8AF0A42CF3
:1000AE00E5F038FCE433CB8DF0A42CFCE5F03BF806
:1000BE00EE8AF0A42CFCE5F038F8E433CF89F0A4F6
:1000CE002CFCE5F038CF3400CE89F0A42FFFE5F0FC
:1000DE003EFEE433C98DF0A42EFEE5F039CD8AF054
:1000EE00A42FFFE5F03EFEE43DFD33D0E0FB5007CC
:1000FE000BBB000F0201C8EC2CFCEF33FFEE33FEFE
:06010E00ED33FD0201A02B
:1001140075F020800E75F010800575F0087D007E66
:10012400007F003392D530D503120228EC334010FF
:10013400EF33FFEE33FEED33FDEC33FCD5F0ED226F
:0E014400E5F0247EA2D513CC92E7CDCEFF22AB
:10015200EDD2E7CD33EC3392D524814006E4FFFEA5
:10016200FDFC22FCE4CFCECDCC24E0501174FF8004
:10017200EDC3CC13CCCD13CDCE13CECF13CF0470A1
:07018200F030D5DE02022877
:10018900E9D2E7C933E833F892D5EDD2E7CD33ECBC
:0701990033FC5002B2D52235
:1001A000EC30E7100FBF000C0EBE00080DBD0004C0
:1001B0000BEB6014A2D5EB13FCED92E7FD2274FF6C
:1001C000FCFDFEFF22E480F8A2D574FF13FC7D80C5
:0301D000E480EFD9
:03000000020727CD
:0C072700787FE4F6D8FD75811602058588
:1001D300BC000BBE0029EF8DF084FFADF022E4CC10
:1001E300F875F008EF2FFFEE33FEEC33FCEE9DECD9
:1001F300984005FCEE9DFE0FD5F0E9E4CEFD22ED1F
:10020300F8F5F0EE8420D21CFEADF075F008EF2F68
:10021300FFED33FD4007985006D5F0F222C398FD59
:050223000FD5F0EA22F6
:0E022800C3E49FFFE49EFEE49DFDE49CFC22E7
:00000001FF
