:0D047F00C0F9A4B0999282F88090BFFFC62A
:10045E00010901010800011300020A0000C100C1D8
:01046E00018C
:10000E0012043012044975120A750F01750D0A7526
:10001E00110BE4F514F50E751005F50C2000507556
:10002E00120A85090F750D0A75110BE508FB7A008A
:10003E007C037DE8FF7E0012028C8F147C037DE82A
:10004E00AF037E0012028C7E007F64CFCDCFCECC6C
:10005E00CE12028C8F0EE50875F06484E5F075F013
:10006E000A84F510E50875F00A8485F00C802A30B4
:10007E00002775120A750F04750D0A75110B75148C
:10008E000B1202E1EF75F00A84F50E1202E1EF7524
:10009E00F00A8485F010750C0CE508D39400402707
:1000AE00E509B4010875A0807580FE8022E509B4CB
:1000BE00020875A0807580FD8015E509B4031075E2
:1000CE00A0807580FB800875A0807580FFC201122C
:1000DE0000FFAD0FAF1212038FAD11AF0D1203B2B1
:1000EE00AD0EAF141203D5AD0CAF101203690200A2
:0100FE002AD7
:10044900438E805389F0758AAE758CFBC28DD28C30
:05045900D2A9D2AF2280
:03000B00020217D7
:10021700C0E0C0D00513050BE50B7002050AE51316
:10022700B40B03751301E508D39400403AE509B40C
:10023700010FE513C394035004D2B4802AC2B480DB
:1002470026E509B4020FE513C394045004D2B48021
:1002570016C2B48012E509B4030DE513C394085020
:1002670004D2B48002C2B4E50BB41014E50AB42773
:100277000F750A00750B00E508D3940040021508B6
:05028700D0D0D0E032F0
:1000FF0020B0117F057E0012032420B002B2002031
:10010F00B07980FB20B1147F057E0012032420B14B
:10011F0005E4F508C20120B16280FB20B2317F05F2
:10012F007E0012032420B222E508700575083C807A
:10013F0019E508D39400400A200107750878D20109
:10014F008008300105E4F508C20120B22E80FB20A3
:10015F00B3297F057E0012032420B31CE509B401E7
:10016F00057509028012E509B402057509038008B7
:0C017F00E509B4030375090130B3FD224B
:1004300075A0A0E4F58075A0807580FF75A0C075DB
:0904400080FF75A0FF7580FF220A
:10038F008D1575A0C075800112031675A0C07580FC
:10039F000275A0FFE51590047F93F5807F017E0025
:0303AF0002032422
:1003B2008D1575A0C075800412031675A0C07580D6
:1003C2000875A0FFE51590047F93F5807F017E00FC
:0303D200020324FF
:1003D5008D1575A0C075801012031675A0C07580A7
:1003E5002075A0FFE51590047F93F5807F017E00C1
:0303F500020324DC
:100369008D1575A0C075804012031675A0C07580E3
:100379008075A0FFE51512031A75A0C07580FF7579
:06038900A0FF7580FF22B9
:0E03160075A0FFEF90047F93F5807F017E00BD
:10032400D3EF9400EE940040147D4D7C03ED1D70DA
:0D033400011CED4C70F7EF1F70E61E80E31A
:010341002299
:040470007F327E0059
:0B047400EF1FAC0670011E4C70F6225A
:0203F800AD074F
:1003FA00E4FBC294ED139294120470D294EDC313E9
:0C040A00FD0BBB08ED7F327E0002047485
:10041600E4FBC294EDC313FDD294309403430580EC
:090426001204700BBB08EBAF05DA
:01042F0022AA
:10034200C202D2947F787E00120474C2947F207E0F
:1003520003120474D2947F647E00120474A29492F5
:0603620002120470A20269
:010368002272
:1002E1001203427FCC1203F87F441203F87FC87EC9
:1002F100001204741203427FCC1203F87FBE120372
:10030100F8120416AA07120416EFC454F0FFEAC447
:04031100540F42073C
:0103150022C5
:0300000002018B6F
:0C018B00787FE4F6D8FD7581200201D2D7
:10028C00BC000BBE0029EF8DF084FFADF022E4CC56
:10029C00F875F008EF2FFFEE33FEEC33FCEE9DEC1F
:1002AC00984005FCEE9DFE0FD5F0E9E4CEFD22ED65
:1002BC00F8F5F0EE8420D21CFEADF075F008EF2FAF
:1002CC00FFED33FD4007985006D5F0F222C398FDA0
:0502DC000FD5F0EA223D
:1001970002000EE493A3F8E493A34003F68001F270
:1001A70008DFF48029E493A3F85407240CC8C33369
:1001B700C4540F4420C8834004F456800146F6DF38
:1001C700E4800B010204081020408090045EE47E66
:1001D700019360BCA3FF543F30E509541FFEE4932D
:1001E700A360010ECF54C025E060A840B8E493A3F4
:1001F700FAE493A3F8E493A3C8C582C8CAC583CA1F
:10020700F0A3C8C582C8CAC583CADFE9DEE780BED6
:01046F00008C
:00000001FF
