:1006AE001C26C0F9A4B0999282F880908883C6A1C6
:1006BE00868EFFBF40792430191202780010084947
:1006CE0010101010101010100121000144100247DC
:0E06DE000000C102C1030245003202240000E8
:10076500E5A0541F4480F5A07580FF53A01FE5A0A8
:10077500541F44A0F5A0C284C28653A01FE5A0540F
:100785001F44C0F5A07580FF53A01FE5A0541F446A
:0A079500E0F5A07580FF53A01F22BD
:10089300E5A0541F44A0300407F5A075801080051F
:0908A300F5A0E4F58053A01F222A
:1008AC00E5A0541F4480300407F5A07580FE800538
:0908BC00F5A07580FF53A01F2276
:10061E00E5A0541F44E0F5A07580FF53A01FE5A090
:10062E00541F44C0F5A0AF217401A807088002C36F
:10063E0033D8FCF58053A01FE5A0541F44E0F5A06D
:10064E0074492521F8E62426F8E6F58053A01F0507
:0A065E0021E521B40803E4F5212290
:1008DB00438901758CF8758A2FD2A9D28CD2AF229D
:03000B000207D613
:1007D600C0E0C0D075D000C000C0070543E5437037
:1007E600020542758CF8758A2F12061EE54364329F
:1007F60045427006F542F543D200D007D000D0D06E
:03080600D0E0320D
:0808EB007F6C7E91DEFEDFFC54
:0108F30022E2
:1006680020B0151208EB20B00C754407E4F547F5E7
:1006780048D202C20330B0FD20B10C1208EB20B101
:100688000375440630B1FD20B20C1208EB20B2030A
:1006980075440530B2FD20B30C1208EB20B3037586
:0606A800440430B3FD2202
:04086C00D2A1D2A0A3
:0F08700075080A0000000000AF081508EF70F9C6
:02087F00C2A114
:0F08810075080A0000000000AF081508EF70F9B5
:03089000C2A022E1
:0408C500C2A1D2A05A
:0F08C90075090A0000000000AF091509EF70F96A
:0308D800D2A12288
:0906ED00EF6004C2A18002D2A159
:0F06F60075080A0000000000AF081508EF70F942
:02070500D2A080
:0F07070075080A0000000000AF081508EF70F930
:04071600C2A0D2A10A
:0F071A0075080A0000000000AF081508EF70F91D
:0107290022AD
:02083C00D2A147
:0F083E0075080A0000000000AF081508EF70F9F8
:02084D00D2A037
:0F084F0075080A0000000000AF081508EF70F9E7
:0E085E0030A107C2A01208C5C322C2A0D32237
:0C079F00E4FEEF30E704D2A18002C2A10A
:0F07AB0075080A0000000000AD081508ED70F990
:0607BA00D2A0EF25E0FFD4
:0F07C00075080A0000000000AD081508ED70F97B
:0607CF00C2A00EBE08CC22
:0107D5002201
:04080900E4FED2A097
:0F080D0075080A0000000000AD081508ED70F92D
:0C081C00EF25E0FF30A103430701C2A05C
:0F08280075080A0000000000AD081508ED70F912
:040837000EBE08D019
:01083B00229A
:10072A00AC0712086C7F9012079F12083C40012206
:10073A00AF0412079FE4FF1206ED12086C7F9112B4
:10074A00079F12083C400122120809E48FF01203A5
:0B075A00D2E4FF1206ED1208C5D32206
:1003FF001207651208DB1206687B007A0079227FEC
:10040F000112072AAE22AF237C007D0512036BACCD
:10041F0006AD07E41202B1E4FBFA798078431202C9
:10042F000FE4FBFA79C87842120106E4FBFA79204F
:10043F0078401200151202EA8E228F23D3E52394FF
:10044F007DE52294004004C2048002D2041208AC5D
:10045F00754910AE22AF237C007D6412037DEF241B
:10046F0012F54AAE22AF237C007D0A12037D7C0079
:10047F007D0A12037D8D4BAE22AF237C007D0A12C5
:10048F00037D8D4C200351AE47AF487C037DE812AE
:10049F00037D8F4DAE47AF487C037DE812037D7E11
:1004AF00007F64CFCDCFCECCCE12037DEF2412F5DB
:1004BF004EAE47AF487C007D6412037D7E007F0AFD
:1004CF00CFCDCFCECCCE12037D8F4FAE47AF487C72
:1004DF00007D0A12037D8D50E544B40715D2041236
:1004EF00089330000D30020AC2000548E54870023B
:1004FF000547E548B44B09E547B404047F01800282
:10050F007F00E544B406047E0180027E00EE4F704A
:10051F0003020405C202D203C204120893AC47AD12
:10052F0048AE45AF4612036B7C007D6412037D8E8F
:10053F00248F257C037DE812037D8F4DAE24AF25DC
:10054F007C037DE812037D7E007F64CFCDCFCECCC0
:10055F00CE12037DEF2412F54EAE24AF257C007D25
:10056F006412037D7E007F0ACFCDCFCECCCE120397
:10057F007D8F4FAE24AF257C007D0A12037D8D50F9
:03058F000204055E
:10000E00020356E86480F8E933E83360110460F0C7
:10001E00ED33EC337009E8FCE9FDEAFEEBFF220458
:10002E0060DED3EB9FEA9EE99DE8C2E78CF0C2F753
:10003E0095F0400CE8CCF8E9CDF9EACEFAEBCFFB1F
:10004E0012032185D0F05804700320D5B3E8047054
:10005E00075002B2D502036092D5EC0460F7E4CCEF
:10006E00C0E0C398F8603B94186008400DD0E0FBE8
:10007E00020338E4FBFAC9FC8028E830E406E4C940
:10008E00FBE4CAFCE830E305E4C9CACBFCE854073C
:10009E006010F8C3E913F9EA13FAEB13FBEC13FC47
:1000AE00D8F130F52FC3E49CFCEF9BFFEE9AFEEDEA
:1000BE0099FDD0E0FBEF4E4D4C701222DB03020394
:1000CE005DEC2CFCEF33FFEE33FEED33FDED30E750
:1000DE00EB020338EF2BFFEE3AFEED39FDD0E0FBDD
:1000EE0050130BBB0003020360ED13FDEE13FEEF86
:0800FE0013FFEC13FC020338B0
:10010600EC4D6011E8497017ED33EC3304600DE4F3
:10011600FCFFFEFD22E933E8330470F802035612B1
:10012600032158046009E4CC2481500628500902B2
:10013600036028400302035DC0E0EB4A7044B980C7
:1001460006D0E0FB02034CEF4E701CBD8008EBFFAF
:10015600EAFEE9FD80EBE98DF0A4FEE5F00201EF91
:10016600E9CDF9EAFEEBFFEF89F0A4FCE5F0CE89D4
:10017600F0A42EFFE435F0CD89F0A42DFEE435F091
:100186008067EF4E7005BD80D780C3EF8BF0A4ACBF
:10019600F0EE8BF0A42CFCE435F0F8EF8AF0A42CFA
:1001A600E5F038FCE433CB8DF0A42CFCE5F03BF80D
:1001B600EE8AF0A42CFCE5F038F8E433CF89F0A4FD
:1001C6002CFCE5F038CF3400CE89F0A42FFFE5F003
:1001D6003EFEE433C98DF0A42EFEE5F039CD8AF05B
:1001E600A42FFFE5F03EFEE43DFD33D0E0FB5007D3
:1001F6000BBB000F020360EC2CFCEF33FFEE33FE6B
:06020600ED33FD02033898
:10020C00020360EC5D046005E859047003020356B8
:10021C00120321580460F6EC4860F2EC7004FDFE09
:10022C00FF22C860DB2481C85009C39860025006C5
:10023C0002035D9850CAF582E9294B4A7005AB82DE
:10024C0002034C75F0007C1A7880C3EF9BEE9AED9C
:10025C0099400DC3EF9BFFEE9AFEED99FDE842F03D
:10026C00DC23ACF0D0E0FFD0E0FED0E0FDAB822090
:10027C00E7101BEB60BAEC2CFCEF33FFEE33FEED1A
:10028C0033FD020338E803F830E705C0F075F000E1
:10029C00EF2FFFEE33FEED33FD40B830E7C280AAFE
:1002AC0075F020800E75F010800575F0087D007ECD
:1002BC00007F003392D530D5031203F1EC3340109C
:1002CC00EF33FFEE33FEED33FDEC33FCD5F0ED22D6
:0E02DC00E5F0247EA2D513CC92E7CDCEFF2212
:1002EA00EDD2E7CD33EC3392D524814006E4FFFE0C
:1002FA00FDFC22FCE4CFCECDCC24E0501174FF806B
:10030A00EDC3CC13CCCD13CDCE13CECF13CF047007
:07031A00F030D5DE0203F113
:10032100E9D2E7C933E833F892D5EDD2E7CD33EC22
:0703310033FC5002B2D5229B
:10033800EC30E7100FBF000C0EBE00080DBD000426
:100348000BEB6014A2D5EB13FCED92E7FD2274FFD2
:10035800FCFDFEFF22E480F8A2D574FF13FC7D802B
:03036800E480EF3F
:0300000002059264
:0C059200787FE4F6D8FD7581500205D991
:10036B00EF8DF0A4A8F0CF8CF0A428CE8DF0A42EA6
:02037B00FE2260
:10037D00BC000BBE0029EF8DF084FFADF022E4CC64
:10038D00F875F008EF2FFFEE33FEEC33FCEE9DEC2D
:10039D00984005FCEE9DFE0FD5F0E9E4CEFD22ED73
:1003AD00F8F5F0EE8420D21CFEADF075F008EF2FBD
:1003BD00FFED33FD4007985006D5F0F222C398FDAE
:0503CD000FD5F0EA224B
:1003D200BB010A89828A83F0E5F0A3F0225006F776
:0F03E20009A7F01922BBFE06F3E5F009F3192273
:0E03F100C3E49FFFE49EFEE49DFDE49CFC221D
:10059E000203FFE493A3F8E493A34003F68001F271
:1005AE0008DFF48029E493A3F85407240CC8C3335E
:1005BE00C4540F4420C8834004F456800146F6DF2D
:1005CE00E4800B01020408102040809006AEE47E09
:1005DE00019360BCA3FF543F30E509541FFEE49322
:1005EE00A360010ECF54C025E060A840B8E493A3E9
:1005FE00FAE493A3F8E493A3C8C582C8CAC583CA14
:10060E00F0A3C8C582C8CAC583CADFE9DEE780BECB
:0106EC00000D
:00000001FF
