:030000000203E018
:0C03E000787FE4F6D8FD75812002042728
:0C055F00C0F9A4B0999282F88090BFFF10
:08056B0002080000021200006A
:10030E0012054E120003D2AFD2A912053575100B8D
:10031E00750D0B750B0B750F0B75110BE4F50CF5BD
:10032E000EF50A300059C200120236D28E309103F9
:10033E00308FFAC28E308F0AC28F75142775150F43
:10034E008038AF8D7512008F13E513751300F512FB
:10035E00AF8BEF4213E4AC12AD131201197B967AF8
:10036E0043798B783C12000E1201528E148F157C3D
:10037E00007D0C1201D38E148F15E4F58DF58BAE26
:10038E0014AF157C007D641201D38F0CAE14AF1523
:10039E007C007D641201D37E007F0ACFCDCFCECC00
:1003AE00CE1201D38F0EAE14AF157C007D0A120152
:1003BE00D38D0AAD0DAF101204B9AD0FAF0B1204F1
:1003CE00D8AD0CAF111204F7AD0AAF0E120516021E
:0203DE000331E9
:10054E00438E805389F0758A9A758CA9C28DD28C90
:01055E00227A
:07000300438E4053890F22D8
:03000B0002049A52
:10049A00C0E0758A9A758CA90509E50970020508F4
:0F04AA00646445087006D200F508F509D0E03209
:100236007F08D290000000000000000000000000CF
:1002460000000000000000000000000000000000A8
:100256000000000000000000000000000000000098
:100266000000000000000000000000000000000088
:100276000000000000000000000000000000000078
:100286000000000000000000000000000000000068
:100296000000000000000000C29000000000000006
:1002A6000000000000000000000000000000000048
:1002B6000000000000000000000000000000000038
:1002C6000000000000000000000000000000000028
:1002D6000000000000000000000000000000000018
:1002E6000000000000000000000000000000000008
:1002F6000000000000000000000000000000AE0743
:070306001FEE600302023844
:01030D0022CD
:0E046C0075A0FFEF90055F93F5807F017E0085
:10047A00D3EF9400EE6480948040147D4D7C03EDAC
:0F048A001D70011CED4C70F7EF1F70E41E80E138
:010499002240
:1005350075A0A0E4F58075A0807580FF75A0C075D5
:0905450080FF75A0FF7580FF2204
:1004B900AB0575A0C075800112046C75A0C075806C
:0F04C9000275A0FFEB93F5807F017E0002047A9D
:1004D800AB0575A0C075800412046C75A0C075804A
:0F04E8000875A0FFEB93F5807F017E0002047A78
:1004F700AB0575A0C075801012046C75A0C075801F
:0F0507002075A0FFEB93F5807F017E0002047A40
:10051600AB0575A0C075804012046C75A0C07580CF
:0F0526008075A0FFEB93F5807F017E0002047AC1
:10000E00EC4D6011E8497017ED33EC3304600DE4EC
:10001E00FCFFFEFD22E933E8330470F80201BE1244
:10002E00018958046009E4CC248150062850090245
:10003E0001C82840030201C5C0E0EB4A7044B980F4
:10004E0006D0E0FB0201B4EF4E701CBD8008EBFF42
:10005E00EAFEE9FD80EBE98DF0A4FEE5F00200F783
:10006E00E9CDF9EAFEEBFFEF89F0A4FCE5F0CE89CD
:10007E00F0A42EFFE435F0CD89F0A42DFEE435F08A
:10008E008067EF4E7005BD80D780C3EF8BF0A4ACB8
:10009E00F0EE8BF0A42CFCE435F0F8EF8AF0A42CF3
:1000AE00E5F038FCE433CB8DF0A42CFCE5F03BF806
:1000BE00EE8AF0A42CFCE5F038F8E433CF89F0A4F6
:1000CE002CFCE5F038CF3400CE89F0A42FFFE5F0FC
:1000DE003EFEE433C98DF0A42EFEE5F039CD8AF054
:1000EE00A42FFFE5F03EFEE43DFD33D0E0FB5007CC
:1000FE000BBB000F0201C8EC2CFCEF33FFEE33FEFE
:06010E00ED33FD0201A02B
:1001140075F020800E75F010800575F0087D007E66
:10012400007F003392D530D503120228EC334010FF
:10013400EF33FFEE33FEED33FDEC33FCD5F0ED226F
:0E014400E5F0247EA2D513CC92E7CDCEFF22AB
:10015200EDD2E7CD33EC3392D524814006E4FFFEA5
:10016200FDFC22FCE4CFCECDCC24E0501174FF8004
:10017200EDC3CC13CCCD13CDCE13CECF13CF0470A1
:07018200F030D5DE02022877
:10018900E9D2E7C933E833F892D5EDD2E7CD33ECBC
:0701990033FC5002B2D52235
:1001A000EC30E7100FBF000C0EBE00080DBD0004C0
:1001B0000BEB6014A2D5EB13FCED92E7FD2274FF6C
:1001C000FCFDFEFF22E480F8A2D574FF13FC7D80C5
:0301D000E480EFD9
:1003EC0002030EE493A3F8E493A34003F68001F216
:1003FC0008DFF48029E493A3F85407240CC8C33312
:10040C00C4540F4420C8834004F456800146F6DFE0
:10041C00E4800B010204081020408090056BE47E00
:10042C00019360BCA3FF543F30E509541FFEE493D5
:10043C00A360010ECF54C025E060A840B8E493A39C
:10044C00FAE493A3F8E493A3C8C582C8CAC583CAC7
:10045C00F0A3C8C582C8CAC583CADFE9DEE780BE7F
:010573000087
:1001D300BC000BBE0029EF8DF084FFADF022E4CC10
:1001E300F875F008EF2FFFEE33FEEC33FCEE9DECD9
:1001F300984005FCEE9DFE0FD5F0E9E4CEFD22ED1F
:10020300F8F5F0EE8420D21CFEADF075F008EF2F68
:10021300FFED33FD4007985006D5F0F222C398FD59
:050223000FD5F0EA22F6
:0E022800C3E49FFFE49EFEE49DFDE49CFC22E7
:00000001FF
