:0C016100010B00010900010A0001080068
:10011700E5A0541F4480F5A07580FF53A01FE5A0FC
:10012700541F44A0F5A0C284C28653A01FE5A05463
:100137001F44C0F5A07580FF53A01FE5A0541F44BE
:0A014700E0F5A07580FF53A01F2211
:1000030053890F438910758B47758DFFD28ED2AB01
:03001300D2AF2247
:03001B000200AA36
:0400AA00C0E0C0D022
:1000AE00758B47758DFF050BE50BC3946440427548
:1000BE000B00D3E50A648094E35014E50970100533
:1000CE000AE50A648094E34006750901750A63C364
:1000DE00E50A648094804016E509B40111150AC33F
:1000EE00E50A648094805006750900750A00850A39
:1000FE0008D3E50864809480400775800015088059
:04010E00037580FFF6
:05011200D0D0D0E03266
:10015100120117120003E5A0541F4480F5A080FE90
:0300000002001EDD
:0C001E00787FE4F6D8FD75810B020065C8
:10002A00020151E493A3F8E493A34003F68001F29A
:10003A0008DFF48029E493A3F85407240CC8C333D7
:10004A00C4540F4420C8834004F456800146F6DFA6
:10005A00E4800B0102040810204080900161E47ED4
:10006A00019360BCA3FF543F30E509541FFEE4939B
:10007A00A360010ECF54C025E060A840B8E493A362
:10008A00FAE493A3F8E493A3C8C582C8CAC583CA8D
:10009A00F0A3C8C582C8CAC583CADFE9DEE780BE45
:01016D000091
:00000001FF
