:0C056200C0F9A4B0999282F88090BFFF0D
:10052600010D1E010C14010800011400010F00C189
:0705360002C100C103C10175
:1001850012050D12053E75130A751001750B0A75DA
:10019500120B75150B750E0BE4F511F50A200065AC
:1001A5001203BE8F09E509C3950C500AE4F50875DD
:1001B500A0A0F5808029E509C3950C4012E509D377
:1001C500950D500B75080175A0A0E4F5808010E52C
:1001D50009D3950D400975080275A0A075801075A5
:1001E500130A850810750B0A75120B75150B750E1C
:1001F5000BE50975F00A84F511E50975F00A8485A2
:10020500F00A0202B12000030202B130031AC20350
:1002150075130A75100B750B0B75120B75150B7590
:100225000E0A75110B750A0BE510B40B0A300107A0
:10023500C201850F108075E50BB40B0A300107C2AA
:1002450001850F0B8066E511B40B0A300107C20169
:10025500850F118057E50A640B705130014EC201BC
:10026500850F0AE51075F00AA47C00250BFDEC3519
:10027500F0FCE51175F00AA47A00250AFFEA35F0CD
:10028500FED3EF9DEC6480F8EE648098401E7513F4
:100295000A75100B750B0B75120B75150B750E0A80
:1002A50075110B750A0B75A0807580FD12000EADDA
:1002B50010AF1312046CAD12AF0B12048FAD0EAF5D
:0E02C500151204B2AD0AAF111204460201A2D6
:10053E00438E805389F0E4F58A758C28C28DD28C57
:05054E00D2A9D2AF228A
:03000B0002035F8E
:10035F00C0E0C0D00514E5087012E514B4A00D7507
:10036F001400200202802E3002408036E50864011E
:10037F007012E514B4500D7514002002028016306F
:10038F000228801EE50864027020E514B4281B754E
:10039F00140020020AD20275A0807580FE800B30F7
:0F03AF000208C20275A0807580FFD0D0D0E03266
:10000E0075B07FC2C4D2C285B01653160FE5166402
:10001E000F604F7F057E0012040185B01653160F38
:10002E00E516640F603C85B016E516248960202421
:10003E00FC601524FE600A14701AE4F50FD20180DC
:10004E0013750F03D201800C750F06D20180057552
:10005E000F09D201E516640F600885B01653160F0E
:10006E0080F275B0BFD2C4C2C285B01653160FE56A
:10007E0016640F70030201257F057E0012040185B0
:10008E00B01653160FE516640F700302012585B0E6
:10009E0016E5162449602024FC601524FE600A141F
:1000AE007067750F01D2018060750F04D2018059FF
:1000BE00750F07D201805220002CD200C2A9C2AF08
:1000CE0075A0807580FF75A0A0E4F58075130A7584
:1000DE00100B750B0B75120B75150B750E0A751132
:1000EE000B750A0B8023300020C200D2A9D2AF7547
:1000FE00A0807580FFE51075F00AA4250BF50DE5BF
:10010E001175F00AA4250AF50CE516640F60088532
:10011E00B01653160F80F275B0DFD2C4D2C285B0BE
:10012E001653160FE516640F604C7F057E00120401
:10013E000185B01653160FE516640F603985B0169B
:10014E00E5162429602024FC601524FE600A147034
:10015E0017750F02D2018010750F05D20180097537
:10016E000F08D2018002D203E516640F600885B035
:06017E001653160F80F27B
:010184002258
:10050D0075A0A0E4F58075A0807580FF75A0C075FD
:09051D0080FF75A0FF7580FF222C
:10046C008D1675A0C07580011203F375A0C0758040
:10047C000275A0FFE51690056293F5807F017E0062
:03048C0002040166
:10048F008D1675A0C07580041203F375A0C075801A
:10049F000875A0FFE51690056293F5807F017E0039
:0304AF0002040143
:1004B2008D1675A0C07580101203F375A0C07580EB
:1004C2002075A0FFE51690056293F5807F017E00FE
:0304D20002040120
:100446008D1675A0C07580401203F375A0C0758027
:100456008075A0FFE5161203F775A0C07580FF75BD
:06046600A0FF7580FF22DB
:0E03F30075A0FFEF90056293F5807F017E00FC
:10040100D3EF9400EE940040147D4D7C03ED1D70FC
:0D041100011CED4C70F7EF1F70E61E80E33C
:01041E0022BB
:040553007F327E0075
:0B055700EF1FAC0670011E4C70F62276
:0204D500AD0771
:1004D700E4FBC294ED139294120553D294EDC31327
:0C04E700FD0BBB08ED7F327E00020557C4
:1004F300E4FBC294EDC313FDD2943094034305800F
:090503001205530BBB08EBAF0518
:01050C0022CC
:10041F00C204D2947F787E00120557C2947F207E4B
:10042F0003120557D2947F647E00120557A294924F
:06043F0004120553A204A3
:010445002294
:1003BE0012041F7FCC1204D57F441204D57FC87E51
:1003CE000012055712041F7FCC1204D57FBE1204F3
:1003DE00D51204F3AA071204F3EFC454F0FFEAC4D3
:0403EE00540F42075F
:0103F20022E8
:030000000202D326
:0C02D300787FE4F6D8FD75812002031A44
:1002DF00020185E493A3F8E493A34003F68001F2AF
:1002EF0008DFF48029E493A3F85407240CC8C33320
:1002FF00C4540F4420C8834004F456800146F6DFEF
:10030F00E4800B0102040810204080900526E47E53
:10031F00019360BCA3FF543F30E509541FFEE493E3
:10032F00A360010ECF54C025E060A840B8E493A3AA
:10033F00FAE493A3F8E493A3C8C582C8CAC583CAD5
:10034F00F0A3C8C582C8CAC583CADFE9DEE780BE8D
:01053D0000BD
:00000001FF
