:1008B600010E0B010B0B01090B010D0B011B0B01AB
:1008C6000A0B010C0B01080B0C0FC0F9A4B099928E
:0608D60082F88090BFFFD4
:100A9C008D1C75A0C0758001120B4D75A0C07580A2
:0F0AAC000275A0FF740F251CF8E6F580020B57AA
:100ABB008D1C75A0C0758004120B4D75A0C0758080
:0F0ACB000875A0FF740F251CF8E6F580020B5785
:100ADA008D1C75A0C0758010120B4D75A0C0758055
:0F0AEA002075A0FF740F251CF8E6F580020B574E
:100AF9008D1C75A0C0758040120B4D75A0C0758006
:0F0B09008075A0FF740F251CF8E6F580020B57CE
:0A0B4D0075A0FF740F2FF8E6F58085
:0A0B57007F167E800000DEFEDFFC4A
:010B61002271
:0908DC000729373B17000000005A
:100B7700E4FEC297EF1392A3EFC313FFD2970EBE03
:020B870008F074
:010B89002249
:100A1000C29300C29700D29300120B77ED75F00AD3
:100A200084C454F0FFED75F00A84E5F04FFF120B1B
:040A300077C29322D4
:1009A200E4FDC29300C29700D29300120B77E4FFDA
:1009B200C297EDC313FD30A303430580D2970FBF47
:1009C20008EEC29300C293C29700D29700C2A3005E
:1009D200D2A300EDC4540FFFED540FFEEF75F00AE1
:0309E200A42EFF41
:0109E50022EF
:100A34007C80E4FD7F8E120A10E4FBAF0474292B42
:100A4400F8E6FD120A100C0C0BBB07EF7D807F8EBD
:030A5400020A1083
:100A57007C81E4FD7F8E120A10E4FBAF041209A229
:100A670074292BF8A6070C0C0BBB07EF7D807F8E34
:030A7700020A1060
:10090500D2A1D2A0000000000000000000000000FD
:1009150000000000000000000000000000000000D2
:1009250000000000000000C2A1000000000000005F
:1009350000000000000000000000000000000000B2
:0F094500000000000000000000000000C2A0221F
:1009E600C2A1D2A00000000000000000000000002C
:1009F60000000000000000000000000000000000F1
:0A0A060000000000000000D2A12251
:10071A00300204C2A18002D2A10000000000000041
:10072A0000000000000000000000000000000000BF
:10073A00000000000000000000000000D2A000003D
:10074A00000000000000000000000000000000009F
:10075A00000000000000000000000000000000008F
:10076A0000C2A0D2A10000000000000000000000AA
:10077A00000000000000000000000000000000006F
:09078A0000000000000000002244
:0B07930012085712079EAF051208570E
:10079E00D2A10000000000000000000000000000D8
:1007AE00000000000000000000000000000000003B
:1007BE000000000000D2A0000000000000000000B9
:1007CE00000000000000000000000000000000001B
:1007DE000000000000000000000030A107C2A012BF
:0807EE0009E6C322C2A0D322D8
:10085700E4FEEF30E704D2A18002C2A1000000004D
:100867000000000000000000000000000000000081
:10087700000000000000000000000000000000D29F
:10088700A0EF25E0FF0000000000000000000000CE
:100897000000000000000000000000000000000051
:0E08A7000000000000000000C2A00EBE08A469
:0108B5002220
:0607F60012085712079ED5
:1007FC00E4FED2A000000000000000000000000099
:10080C0000000000000000000000000000000000DC
:10081C0000000000000000EF25E0FF30A1034307BB
:10082C0001C2A00000000000000000000000000059
:10083C0000000000000000000000000000000000AC
:0A084C000000000000000EBE08A826
:01085600227F
:02095400AD07ED
:100956001209057F901207931209E61209057F9185
:100966001207F6AC07E41201BE8F1F8E1E8D1D8C7A
:100976001C12079E1209E6E4FFFE7DA07C40AB1F19
:10098600AA1EA91DA81C12000EE4FBFA797F784363
:0B0996001201178F1F8E1E8D1D8C1C80
:0109A1002233
:100B6200AC071209057FA012085712079EAF0412A4
:050B720007930209E6F3
:020B1800AD0727
:100B1A001209057FA01207931209E61209057FA19F
:090B2A001207F612079E1209E6FB
:010B3300229F
:0D08E500013200013100013000C101C100ED
:1004F800C2C2C2C475B00FE5B0640F700302068DA6
:10050800120B57E5B0640F700302068DD2C2D2C435
:1005180075B030E5B0B4300B30C20820C405E4F53E
:1005280032802EE5B0B4300B20C20830C4057532D5
:1005380001801EE5B0B4100B30C20830C405753216
:1005480002800EE5B0B4200930C20630C40375320B
:1005580003C2C2C2C475B00FAFB0EF24F960132450
:10056800FC600B24FE600314800E7404800674087B
:100578008002740C2532F532E53214700302061736
:1005880024FD602814700302064C24FD603124FC0D
:100598006033240C6003020688200105D20102069C
:1005A80088200103020688C201020688200005D2BD
:1005B80000020688200003020688C2000206887529
:1005C8003104020688300126E5307002803CE530AF
:1005D800B40102802AE530B40206753003020688A9
:1005E800E53064036003020688F5300206882000BF
:1005F80003020688E53070028010E530B401057505
:100608003002807CE530640270767530018071308C
:10061800011CE530B40104052B8045E530B4020423
:10062800052A803CE5306403705605298032300085
:100638004FE530B4010474058035E530640270403C
:100648007405803830011EE530B40104152B801084
:10065800E530B40204152A8007E530B403221529D1
:10066800120A34801B300018E530B4010874FB25E9
:1006780022F522800BE530B4020674FB2521F52112
:06068800E5B0B40FFB22F7
:1008F20004250000000002230000C10301221401AC
:02090200210AC8
:1002D600120B34120B8A120A34120A572001030237
:1002E60003C6E53070028028E53064017017E52901
:1002F60030E002801BE52930E0030203C6750E0BD1
:10030600750B0B805EE5306402703CE52930E01326
:10031600E52B75F00A84F50EE52B75F00A8485F059
:100326000B8040E52930E0030203C6E52B75F00A91
:1003360084F50EE52B75F00A8485F00B75090A75B0
:100346000D0B751B0B8030E53064037073E52930A7
:10035600E03BE52B75F00A84F50EE52B75F00A8473
:1003660085F00B75090AE52A75F00A84F50DE52A6C
:1003760075F00A8485F01B750A0AE52975F00A846A
:10038600F50CE52975F00A8485F0088033E5292007
:10039600E02EE52B75F00A84F50EE52B75F00A8440
:1003A60085F00B75090AE52A75F00A84F50DE52A2C
:1003B60075F00A8485F01B750A0A750C0B75080B17
:1003C6002000030204D6E530704B7F031209548FD8
:1003D600288E278D268C25E4FBFA79207841120099
:1003E6000E8F288E278D268C25750E0A750B0175A6
:1003F600090A750D0B1201F2AB07AA067C007D0AED
:100406001202738F1B7C007D0AAF03AE02120273C9
:100416008D0A0204A8E53064017055E52930E0290B
:10042600E52275F00A84F50EE52275F00A8485F05A
:100436000BE4F509F50DE52175F00A84F51BE521B8
:1004460075F00A8485F00A8059E52930E003020434
:10045600D6750E0B750B0B75090B750D0BE5217516
:10046600F00A84F51BE52175F00A8485F00A8032CE
:10047600E5306402705AE52930E02EE52275F00A6F
:1004860084F50EE52275F00A8485F00BE4F509F58E
:100496000DE52175F00A84F51BE52175F00A8485C2
:1004A600F00AE4F50CF5088027E52920E022E5228C
:1004B60075F00A84F50EE52275F00A8485F00BE4E2
:1004C600F509F50D751B0B750A0B750C0B75080BED
:1004D6001204F8AD0BAF0E120A9CAD0DAF09120A4D
:1004E600BBAD0AAF1B120ADAAD08AF0C120AF9024D
:0204F60002DF23
:03000B00020A7A6C
:100A7A00C0E0C0D00524E52470020523C394F4E540
:100A8A002394014008752300752400B203D0D0D006
:020A9A00E03248
:100B8A00438E805389F0758A9A758CA9C28DD28C4E
:010B9A002238
:100B340075A0A0E4F58075A0807580FF75A0C075D0
:090B440080FF75A0FF7580FF22FF
:10000E00EC4D6011E8497017ED33EC3304600DE4EC
:10001E00FCFFFEFD22E933E8330470F802025E12A3
:10002E00022958046009E4CC2481500628500902A4
:10003E000268284003020265C0E0EB4A7044B980B2
:10004E0006D0E0FB020254EF4E701CBD8008EBFFA1
:10005E00EAFEE9FD80EBE98DF0A4FEE5F00200F783
:10006E00E9CDF9EAFEEBFFEF89F0A4FCE5F0CE89CD
:10007E00F0A42EFFE435F0CD89F0A42DFEE435F08A
:10008E008067EF4E7005BD80D780C3EF8BF0A4ACB8
:10009E00F0EE8BF0A42CFCE435F0F8EF8AF0A42CF3
:1000AE00E5F038FCE433CB8DF0A42CFCE5F03BF806
:1000BE00EE8AF0A42CFCE5F038F8E433CF89F0A4F6
:1000CE002CFCE5F038CF3400CE89F0A42FFFE5F0FC
:1000DE003EFEE433C98DF0A42EFEE5F039CD8AF054
:1000EE00A42FFFE5F03EFEE43DFD33D0E0FB5007CC
:1000FE000BBB000F020268EC2CFCEF33FFEE33FE5D
:06010E00ED33FD0202408A
:10011400020268EC5D046005E85904700302025EA3
:10012400120229580460F6EC4860F2EC7004FDFEFB
:10013400FF22C860DB2481C85009C39860025006BE
:100144000202659850CAF582E9294B4A7005AB82D0
:1001540002025475F0007C1A7880C3EF9BEE9AED8E
:1001640099400DC3EF9BFFEE9AFEED99FDE842F036
:10017400DC23ACF0D0E0FFD0E0FED0E0FDAB822089
:10018400E7101BEB60BAEC2CFCEF33FFEE33FEED13
:1001940033FD020240E803F830E705C0F075F000D3
:1001A400EF2FFFEE33FEED33FD40B830E7C280AAF7
:1001B40075F020800E75F010800575F0087D007EC6
:1001C400007F003392D530D5031202C8EC334010BF
:1001D400EF33FFEE33FEED33FDEC33FCD5F0ED22CF
:0E01E400E5F0247EA2D513CC92E7CDCEFF220B
:1001F200EDD2E7CD33EC3392D524814006E4FFFE05
:10020200FDFC22FCE4CFCECDCC24E0501174FF8063
:10021200EDC3CC13CCCD13CDCE13CECF13CF047000
:07022200F030D5DE0202C836
:10022900E9D2E7C933E833F892D5EDD2E7CD33EC1B
:0702390033FC5002B2D52294
:10024000EC30E7100FBF000C0EBE00080DBD00041F
:100250000BEB6014A2D5EB13FCED92E7FD2274FFCB
:10026000FCFDFEFF22E480F8A2D574FF13FC7D8024
:03027000E480EF38
:0300000002068E67
:0C068E00787FE4F6D8FD7581320206D5B5
:10027300BC000BBE0029EF8DF084FFADF022E4CC6F
:10028300F875F008EF2FFFEE33FEEC33FCEE9DEC38
:10029300984005FCEE9DFE0FD5F0E9E4CEFD22ED7E
:1002A300F8F5F0EE8420D21CFEADF075F008EF2FC8
:1002B300FFED33FD4007985006D5F0F222C398FDB9
:0502C3000FD5F0EA2256
:0E02C800C3E49FFFE49EFEE49DFDE49CFC2247
:10069A000202D6E493A3F8E493A34003F68001F29E
:1006AA0008DFF48029E493A3F85407240CC8C33361
:1006BA00C4540F4420C8834004F456800146F6DF30
:1006CA00E4800B01020408102040809008B6E47E02
:1006DA00019360BCA3FF543F30E509541FFEE49325
:1006EA00A360010ECF54C025E060A840B8E493A3EC
:1006FA00FAE493A3F8E493A3C8C582C8CAC583CA17
:10070A00F0A3C8C582C8CAC583CADFE9DEE780BECE
:0109040000F2
:00000001FF
