:03000000020AA051
:0C0AA000787FE4F6D8FD75816C020AE74F
:0C000E00C0F9A4B0999282F88090BFFF66
:100D840008650B0B0B0B0B0B0B0B025B00000241FA
:100D940000010223000002250000042700000000D7
:100DA400043B000000000235000002330000023F53
:020DB40000FF3E
:10001E00E4752E01F52DF52CF52B120F48120F8FCE
:10002E00120F7A7D047F01120FA4120E847D057FBC
:10003E0002120FA4120E847D067F03120FA4120E5D
:10004E00847D087F04120FA4120E847F01120F61AB
:10005E00754F008F50120E847F02120F6175510082
:10006E008F52120E847F03120F617553008F54123C
:10007E000E847F04120F617555008F56120E84E5A3
:10008E00264525702530B322AE21AF22FCFDAB46AE
:10009E00AA45A944A843C31208C8500875A0808574
:1000AE004080800675A0807580FF1208D9E47F011C
:1000BE00FEFDFCAB2EAA2DA92CA82BC31208C870CE
:1000CE000A85503A854F39F538F537E47F02FEFD43
:1000DE00FCAB2EAA2DA92CA82BC31208C8700A851A
:1000EE00523A855139F538F537E47F03FEFDFCAB06
:1000FE002EAA2DA92CA82BC31208C8700A85543A13
:10010E00855339F538F537E47F04FEFDFCAB2EAA96
:10011E002DA92CA82BC31208C8700A85563A8555EE
:10012E0039F538F537E5264525701B30B31875655A
:10013E000B75660B75670B75680B75690B756A0B1E
:10014E00756B0B756C0BE52664014525600302018A
:10015E00F175650A852E6675670A75680B7F01FE57
:10016E00FDFCAB2AAA29A928A827C31208C87073B8
:10017E00F52AF529F528F527FFFEFDFCAB3EAA3D35
:10018E00A93CA83BC31208C870317B0AFAF9F8AF34
:10019E003AAE39AD38AC371208288F69E47B0AFACB
:1001AE00F9F8AF3AAE39AD38AC37120828AF038F35
:1001BE006AE4F56BF56C753E018022E47F01FEFD6D
:1001CE00FCAB3EAA3DA93CA83BC31208C8701475EF
:1001DE00690B756A0B756B0B756C0BF53EF53DF582
:1001EE003CF53BE52664024525600302028B7568EB
:1001FE000B7B0AFAF9F8AF3AAE39AD38AC371208C4
:10020E00288F69E47B0AFAF9F8AF3AAE39AD38AC0B
:10021E0037120828AF038F6AE4F56BF56C7F01FE89
:10022E00FDFCAB2AAA29A928A827C31208C8704D1D
:10023E00F52AF529F528F527FFFEFDFCAB3EAA3D74
:10024E00A93CA83BC31208C8700E75650A852E66B8
:10025E0075670A753E01801FE47F01FEFDFCAB3E13
:10026E00AA3DA93CA83BC31208C8701175650B7551
:10027E00660B75670BF53EF53DF53CF53BE53664D3
:10028E00014535600302037FF535F536E526640139
:10029E00452560030203407F01FEFDFCAB2EAA2D17
:1002AE00A92CA82BC31208C870130550E550700274
:1002BE00054F640D454F7005F54F755004E47F02F0
:1002CE00FEFDFCAB2EAA2DA92CA82BC31208C870BC
:1002DE00130552E55270020551640D45517005F536
:1002EE0051755204E47F03FEFDFCAB2EAA2DA92C02
:1002FE00A82BC31208C870130554E5547002055399
:10030E00640D45537005F553755404E47F04FEFDEA
:10031E00FCAB2EAA2DA92CA82BC31208C87013054E
:10032E0056E55670020555640D45557005F5557523
:10033E005604E526640245257037E52E2401F52E78
:10034E00E4352DF52DE4352CF52CE4352BF52BE489
:10035E007F05FEFDFCAB2EAA2DA92CA82BC31208DF
:10036E00C87009752E01F52DF52CF52BE4F55BF50E
:10037E005CE52664014525600BE526640245256093
:10038E0003020490E534640145336003020490F5E2
:10039E0033F534E52664014525600302044F7F01E1
:1003AE00FEFDFCAB2EAA2DA92CA82BC31208C870DB
:1003BE0015E55015507002154FE5506403454F700A
:1003CE0005F54F75500CE47F02FEFDFCAB2EAA2DF9
:1003DE00A92CA82BC31208C87015E552155270022D
:1003EE001551E552640345517005F55175520CE4F3
:1003FE007F03FEFDFCAB2EAA2DA92CA82BC3120841
:10040E00C87015E554155470021553E55464034530
:10041E00537005F55375540CE47F04FEFDFCAB2EB2
:10042E00AA2DA92CA82BC31208C87015E55615566F
:10043E0070021555E556640345557005F55575560C
:10044E000CE526640245257039E52E24FFF52EE5D0
:10045E002D34FFF52DE52C34FFF52CE52B34FFF56F
:10046E002BE4FFFEFDFCAB2EAA2DA92CA82BC3124C
:10047E0008C87009752E04F52DF52CF52BE4F55BE7
:10048E00F55CE526640145256008E52664024525F0
:10049E00700675A0807580FFD3E5229400E5219447
:1004AE00004010E5229440E521940050067563004B
:1004BE00756401D3E5229440E52194004010E522B5
:1004CE009480E52194005006756300756402D3E5AF
:1004DE00229480E52194004010E52294C0E52194F9
:1004EE00005006756300756403D3E52294C0E521C0
:1004FE009400500302008DE5219401400302008D0B
:09050E0075630075640402008DA0
:1008D90020B022120E8420B019E52445237007F5B3
:1008E90023752401800CE524640145237004F52354
:1008F900F52430B0FD30B1030209C7120E8430B1BE
:10090900030209C4E52645257007F52575260180EA
:100919000DE526640145257018F525752602F52A89
:10092900F529F528F527F53EF53DF53CF53B020996
:10093900C4E5266402452560030209C4F525F526A8
:10094900F52AF529F528F527F53EF53DF53CF53B62
:100959007F01FEFDFCAB2EAA2DA92CA82BC31208E2
:10096900C87006AD507F01804CE47F02FEFDFCABF0
:100979002EAA2DA92CA82BC31208C87006AD527F28
:10098900028032E47F03FEFDFCAB2EAA2DA92CA820
:100999002BC31208C87006AD547F038018E47F0486
:1009A900FEFDFCAB2EAA2DA92CA82BC31208C870DA
:1009B9000AAD567F04120FA4120E8430B1FD20B285
:1009C9000F120E8420B20675350075360130B2FD5E
:1009D90020B31B120E8420B312753300753401E560
:0F09E9002645257006756B0A85646C30B3FD22B8
:100F7A00438E4053890F758BD7758DFDC28FD28EE4
:050F8A00D2ABD2AF2242
:03001B000209F8DF
:1009F800C0E0C0F0C083C082C0D075D000C000C0C5
:100A080001C002C003C004C005C006C007E54624F3
:100A180001F546E43545F545E43544F544E4354308
:100A2800F543E54E2401F54EE4354DF54DE4354CDE
:100A3800F54CE4354BF54BE4FF7E01FDFCAB46AAD3
:100A480045A944A843D31208C8400C75460075450B
:100A580000754400754300E47F64FEFDFCAB4EAABC
:100A68004DA94CA84BC31208C87012F54EF54DF5A8
:100A78004CF54B7F03120EEE7521008F22D007D064
:100A880006D005D004D003D002D001D000D0D0D0F9
:080A980082D083D0F0D0E032DF
:100F8F00438E805389F0758A9A758CA9C28DD28C45
:050F9F00D2A9D2AF222F
:03000B00020517D4
:10051700C0E0C0F0C083C082C0D075D000C000C0AA
:1005270001C002C003C004C005C006C007120D42C7
:10053700E5622401F562E43561F561E43560F56053
:10054700E4355FF55FE47F907E01FDFCAB62AA6155
:10055700A960A85FC31208C87011F562F561F5605C
:10056700F55F752A01F529F528F527E52464014586
:1005770023600302070DE5264525600302070DE505
:100587005A2401F55AE43559F559E43558F558E434
:100597003557F557E47F32FEFDFCAB3AAA39A93847
:1005A700A83712079DAB5AAA59A958A857C31208CA
:1005B700C8600302070DF55AF559F558F5577F013D
:1005C700FEFDFCAB2EAA2DA92CA82BC31208C870C0
:1005D7002D75A0807580FEAF80A85CEF0880012391
:1005E700D8FDF580055CE55C7002055B6408455B3A
:1005F7007004F55BF55CE580B4FF037580FEE47F6E
:1006070002FEFDFCAB2EAA2DA92CA82BC31208C8ED
:10061700702D75A08075807FAF80A85CEF08800182
:1006270003D8FDF580055CE55C7002055B64084551
:100637005B7004F55BF55CE580B4FF0375807FE4D0
:100647007F03FEFDFCAB2EAA2DA92CA82BC31208F5
:10065700C8704C75A080F52F75307FF5317532FE67
:10066700AF32AE5CA806EF08800123D8FDFDAF309E
:10067700A806EF08800103D8FD5DF580055CE55C01
:100687007002055B6404455B7004F55BF55CE5800F
:10069700B4FF0C752F0075307F7531007532FEE49D
:1006A7007F04FEFDFCAB2EAA2DA92CA82BC3120894
:1006B700C8704C75A080F52F7530EFF5317532F79E
:1006C700AF32AE5CA806EF08800103D8FDFDAF305E
:1006D700A806EF08800123D8FD5DF580055CE55C81
:1006E7007002055B6404455B7004F55BF55CE580AF
:1006F700B4FF0C752F007530EF7531007532F7AF09
:1007070080753F008F40D007D006D005D004D003B6
:10071700D002D001D000D0D0D082D083D0F0D0E0AA
:01072700329F
:100F480075A0A0E4F58075A0C07580FF75A0FF7539
:090F580080FF75A0807580FF2266
:040E84007F057E0068
:100E8800D3EF9400EE6480948040147D4D7C03ED94
:0F0E98001D70011CED4C70F7EF1F70E41E80E120
:010EA7002228
:100D420075A0EF7580FF75A01F75A0CFAF5E74010F
:100D5200A807088002C333D8FCF58075A01F75A0D0
:100D6200EF74652FF8E690000E93F58075A01F05CD
:100D72005EE55E7002055D6408455D7004F55DF533
:020D82005E22EF
:090DB6000708323B1700000000A1
:100FB900E4FEC297EF1392A3EFC313FFD2970EBEBD
:020FC90008F02E
:010FCB002203
:100DC000C2930000000000000000C2970000000075
:100DD00000000000D2930000000000000000120F8D
:100DE000B9ED75F00A84C454F0FFED75F00A84E59E
:090DF000F04FFF120FB9C293226B
:100B2C00E4FDC2930000000000000000C29700002A
:100B3C00000000000000D293000000000000000044
:100B4C00120FB9E4FFC297EDC313FD30A3034305A5
:100B5C0080D2970FBF08EEC2930000000000000087
:100B6C0000C293C2970000000000000000D2970062
:100B7C0000000000000000C2A30000000000000004
:100B8C0000D2A30000000000000000EDC4540FFFD1
:0B0B9C00ED540FFEEF75F00AA42EFFD1
:010BA700222B
:100EA8007C80E4FD7F8E120DC0E4FBAF0474082B38
:100EB800F8E6FD120DC00C0C0BBB07EF7D807F8E92
:030EC800020DC058
:100ECB007C81E4FD7F8E120DC0E4FBAF04120B2C72
:100EDB0074082BF8A6070C0C0BBB07EF7D807F8EDD
:030EEB00020DC035
:040FCC007F327E00F2
:0B0FD000EF1FAC0670011E4C70F622F3
:020F1000AD072B
:100F1200E4FBC294ED139294120FCCD294EDC3135E
:0C0F2200FD0BBB08ED7F327E00020FD0FB
:100F2E00E4FBC294EDC313FDD294309403430580C9
:090F3E00120FCC0BBB08EBAF0550
:010F47002287
:100E5D00C200D2947F787E00120FD0C2947F207E84
:100E6D0003120FD0D2947F647E00120FD0A2949201
:060E7D0000120FCCA200E0
:010E8300224C
:100DF900120E5D7FCC120F107F44120F107FC87E38
:100E090000120FD0120E5D7FCC120F107FBE120F91
:100E190010120F2EAA07120F2EEFC454F0FFEAC4C6
:040E2900540F420719
:010E2D0022A2
:100CE900D2A1D2A000000000000000000000000016
:100CF90000000000000000000000000000000000EB
:100D0900000000000000000000000000C2A1000077
:100D190000000000000000000000000000000000CA
:100D290000000000000000000000000000000000BA
:090D3900000000000000C2A0222D
:100E2E00C2A1D2A0000000000000000000000000DF
:100E3E0000000000000000000000000000000000A4
:0F0E4E00000000000000000000000000D2A12200
:0B0BA800120C80120BB3AF05120C8082
:100BB300D2A10000000000000000000000000000BF
:100BC3000000000000000000000000000000000022
:100BD30000000000000000000000D2A000000000A0
:100BE3000000000000000000000000000000000002
:100BF30000000000000000000000000000000000F2
:100C03000000000030A107C2A0120E2EC322C2A012
:020C1300D322EA
:100C8000E4FEEF30E704D2A18002C2A10000000020
:100C90000000000000000000000000000000000054
:100CA0000000000000000000000000000000000044
:100CB00000000000D2A0EF25E0FF000000000000CF
:100CC0000000000000000000000000000000000024
:100CD0000000000000000000000000000000000014
:080CE0000000C2A00EBE089A3C
:010CE80022E9
:060C1500120C80120BB36B
:100C1B00E4FED2A000000000000000000000000075
:100C2B0000000000000000000000000000000000B9
:100C3B00000000000000000000000000EF25E0FFB6
:100C4B0030A103430701C2A0000000000000000018
:100C5B000000000000000000000000000000000089
:100C6B000000000000000000000000000000000079
:040C7B000EBE089E03
:010C7F002252
:020EEE00AD074E
:100EF000120CE97F90120BA8120E2E120CE97F91B2
:0F0F0000120C15AC07E4120732120E2E12076600
:010F0F0022BF
:020F6100AD07DA
:100F6300120CE97FA0120BA8120E2E120CE97FA11E
:060F7300120C15120E2EF7
:010F79002255
:100FA400AC07120CE97FA0120C80120BB3AF041231
:050FB4000BA8020E2E47
:1007280075F020800E75F010800575F0087D007E4C
:10073800007F003392D530D5031208BAEC3340104D
:10074800EF33FFEE33FEED33FDEC33FCD5F0ED2255
:0E075800E5F0247EA2D513CC92E7CDCEFF2291
:10076600EDD2E7CD33EC3392D524814006E4FFFE8B
:10077600FDFC22FCE4CFCECDCC24E0501174FF80EA
:10078600EDC3CC13CCCD13CDCE13CECF13CF047087
:07079600F030D5DE0208BAC5
:100AAC0002001EE493A3F8E493A34003F68001F242
:100ABC0008DFF48029E493A3F85407240CC8C3334B
:100ACC00C4540F4420C8834004F456800146F6DF1A
:100ADC00E4800B0102040810204080900D84E47E19
:100AEC00019360BCA3FF543F30E509541FFEE4930F
:100AFC00A360010ECF54C025E060A840B8E493A3D6
:100B0C00FAE493A3F8E493A3C8C582C8CAC583CA00
:100B1C00F0A3C8C582C8CAC583CADFE9DEE780BEB8
:010DBF000033
:10079D00E88FF0A4CC8BF0A42CFCE98EF0A42CFCFB
:1007AD008AF0EDA42CFCEA8EF0A4CDA8F08BF0A479
:1007BD002DCC3825F0FDE98FF0A42CCD35F0FCEBD8
:1007CD008EF0A4FEA9F0EB8FF0A4CFC5F02ECD399D
:0F07DD00FEE43CFCEAA42DCE35F0FDE43CFC220A
:1007EC0075F008758200EF2FFFEE33FECD33CDCCC4
:1007FC0033CCC58233C5829BED9AEC99E582984047
:10080C000CF582EE9BFEED9AFDEC99FC0FD5F0D623
:10081C00E4CEFBE4CDFAE4CCF9A88222B800C1B94D
:10082C000059BA002DEC8BF084CFCECDFCE5F0CB8B
:10083C00F97818EF2FFFEE33FEED33FDEC33FCEBC4
:10084C0033FB10D703994004EB99FB0FD8E5E4F97F
:10085C00FA227818EF2FFFEE33FEED33FDEC33FC6C
:10086C00C933C910D7059BE99A4007EC9BFCE99A60
:10087C00F90FD8E0E4C9FAE4CCFB2275F010EF2FA5
:10088C00FFEE33FEED33FDCC33CCC833C810D707A5
:10089C009BEC9AE899400AED9BFDEC9AFCE899F8E0
:0E08AC000FD5F0DAE4CDFBE4CCFAE4C8F92273
:0E08BA00C3E49FFFE49EFEE49DFDE49CFC224F
:1008C800EB9FF5F0EA9E42F0E99D42F0E89C45F086
:0108D80022FD
:00000001FF
