:1009BE001229C0F9A4B0999282F88090BFFF7FC12E
:1009CE008EC6898C01280B01250B01220B01270BEA
:0F09DE00013B0B01240B01260B01210B01230B05
:100B30008D1C75A0C0758001120C3375A0C0758026
:0F0B40000275A0FF7429251CF8E6F580020C3D14
:100B4F008D1C75A0C0758004120C3375A0C0758004
:0F0B5F000875A0FF7429251CF8E6F580020C3DEF
:100B6E008D1C75A0C0758010120C3375A0C07580D9
:0F0B7E002075A0FF7429251CF8E6F580020C3DB8
:100B8D008D1C75A0C0758040120C3375A0C075808A
:0F0B9D008075A0FF7429251CF8E6F580020C3D39
:100C720075A0C08F8075A0FF74292DF8E6F580025B
:020C82000C3D27
:0A0C330075A0FF74292FF8E6F58084
:0A0C3D007F167E800000DEFEDFFC63
:010C4700228A
:10096500D2A1D2A00000000000000000000000009D
:100975000000000000000000000000000000000072
:10098500000000000000000000000000C2A10000FF
:100995000000000000000000000000000000000052
:1009A5000000000000000000000000000000000042
:0909B500000000000000C2A022B5
:100A8C00C2A1D2A000000000000000000000000085
:100A9C00000000000000000000000000000000004A
:0F0AAC00000000000000000000000000D2A122A6
:10079C00300004C2A18002D2A100000000000000C1
:1007AC00000000000000000000000000000000003D
:1007BC00000000000000000000000000000000002D
:1007CC0000D2A000000000000000000000000000AB
:1007DC00000000000000000000000000000000000D
:1007EC000000000000000000000000C2A0D2A10028
:1007FC0000000000000000000000000000000000ED
:10080C0000000000000000000000000000000000DC
:08081C000000000000000022B2
:0B0824001208FC12082FAF051208FCA0
:10082F00D2A1000000000000000000000000000046
:10083F0000000000000000000000000000000000A9
:10084F0000000000000000000000D2A00000000027
:10085F000000000000000000000000000000000089
:10086F000000000000000000000000000000000079
:10087F000000000030A107C2A0120A8CC322C2A040
:02088F00D32272
:1008FC00E4FEEF30E704D2A18002C2A100000000A8
:10090C0000000000000000000000000000000000DB
:10091C0000000000000000000000000000000000CB
:10092C0000000000D2A0EF25E0FF00000000000056
:10093C0000000000000000000000000000000000AB
:10094C00000000000000000000000000000000009B
:08095C000000C2A00EBE089AC3
:010964002270
:060891001208FC12082F02
:10089700E4FED2A0000000000000000000000000FD
:1008A7000000000000000000000000000000000041
:1008B700000000000000000000000000EF25E0FF3E
:1008C70030A103430701C2A00000000000000000A0
:1008D7000000000000000000000000000000000011
:1008E7000000000000000000000000000000000001
:0408F7000EBE089E8B
:0108FB0022DA
:020A0900AD0737
:100A0B001209657F90120824120A8C1209657F91D6
:100A1B00120891AC07E412022B8F1F8E1E8D1D8CBA
:100A2B001C120A8CE4FFFE7DA07C40AB1FAA1EA902
:100A3B001DA81C12000EE4FBFA797F7843120117F4
:080A4B008F1F8E1E8D1D8C1CF7
:010A53002280
:100C4800AC071209657FA01208FC12082FAF041226
:050C58000824020A8CD3
:020BCA00AD0775
:100BCC001209657FA0120824120A8C1209657FA1F4
:090BDC0012089112082F120A8C74
:010BE50022ED
:0C09ED00011B00011A0001190001180094
:1003430020B022120C3D20B014E51B7005751B0173
:10035300800BE51BB40106E4F51B75180130B003EF
:1003630002057480F830B1030204C9120C3D30B1A8
:10037300030204C1E51B60030204B0E51A70737540
:100383001A01FF120BCA7508008F097F01120BCAED
:10039300AC07E412022B8F0D8E0C8D0B8C0A752883
:1003A3001075250F75220B75270BAE08AF097C005E
:1003B3007D0A1202E08F3BAE08AF097C007D0A1272
:1003C30002E08D24AF0DAE0CAD0BAC0A12025FAB95
:1003D30007AA067C007D0A1202E08F267C007D0AB4
:1003E300AF03AE021202E08D2175230C750F2002BC
:1003F30004C1E51A6401704D751A027F03120BCA1A
:10040300AC07E412022B8F158E148D138C127528F2
:100413001075250D75220B75270B753B0B75240B7A
:1004230012025FAB07AA067C007D0A1202E08F2648
:100433007C007D0AAF03AE021202E08D2175230C0E
:10044300750F408079E51A6402703D751A037F04C5
:10045300120BCA7510008F1175281075250E7522A1
:100463000BAE107C007D0A1202E08F27AE10AF1195
:100473007C007D0A1202E08D3BE4F524F526F5218C
:1004830075230B750FFF8036E51A64037030F51A78
:1004930075280B75250B75220B75270B753B0B7593
:1004A300240B75260B75210B75230B8011E51BB4EB
:1004B300010C050EE50ED394324003750E0130B1E5
:1004C3000302057480F820B25C120C3D20B251ADDA
:1004D30009E4FF120C48120C3D120C3DAF0DAE0C9B
:1004E300AD0BAC0A12025FAD077F01120C48120C70
:1004F3003D120C3DAF15AE14AD13AC1212025FAD3D
:10050300077F03120C48120C3D120C3DAD117F0402
:10051300120C48120C3D120C3DAD0E7F05120C4817
:1005230020B24E80FB20B349120C3D20B340E518A6
:1005330070057518018037E518B401057518028038
:100543002DE518B402057518038023E518B4031EBE
:10055300E4F51875280B75250B75220B75270B759C
:100563003B0B75240B75260B75210B75230B30B3D1
:02057300FD2267
:0F09F90004120000000002100020010E0AC101CC
:10057500120C1A120C5D75A0807580FFE5186401D8
:10058500706C75A0807580FE120C008E088F0912A4
:100595000ABB8F0D8E0C8D0B8C0A75280F75250BDC
:1005A50075220B75270BAE08AF097C007D0A120278
:1005B500E08F3BAE08AF097C007D0A1202E08D2476
:1005C500AF0DAE0CAD0BAC0A12025FAB07AA067CF1
:1005D500007D0A1202E08F267C007D0AAF03AE0281
:1005E5001202E08D2175230C750F20020690E51887
:1005F5006402705C75A0807580FD7F03120A098F07
:10060500158E148D138C12E4FBFA792078411200B3
:100615000E8F158E148D138C1275280D75250B757F
:10062500220B75270B753B0B75240B12025FAB076D
:10063500AA067C007D0A1202E08F267C007D0AAFA7
:1006450003AE021202E08D2175230C750F40803B2D
:10065500E5186403703575A0807580FB75280E75E7
:10066500250B75220BAE10AF11FC7D0A1202E08F2F
:1006750027AE10AF117C007D0A1202E08D3BE4F538
:1006850024F526F52175230B750FFFE51BB401290C
:1006950075281175250B75220B75270B753B0B7589
:1006A500240BE50E75F00A84F526E50E75F00A842F
:1006B50085F02175230C750F40AC0EE412022BABAF
:1006C50015AA14A913A8121201B46016401420012A
:1006D5000875A08075807F800930010675A080753A
:1006E50080FF120343AD25AF28120B30AD27AF2293
:1006F500120B4FAD24AF3B120B6EAD21AF26120B83
:0B0705008DAD23AF0F120C7202057BBC
:03000B00020B0ED7
:100B0E00C0E0C0D00517E51770020516C39464E562
:100B1E001694004008751600751700B201D0D0D09B
:020B2E00E032B3
:100C5D00438E4053890F758B9A758DA9C28FD28E95
:050C6D00D2A9D2AF2264
:100C1A0075A0A0E4F58075A0807580FF75A0C075E9
:090C2A0080FF75A0FF7580FF2218
:040BE6007F057E0009
:100BEA00EF1FAA0670011E4A600BE4FDEDC3940CC8
:050BFA0050EE0D80F734
:010BFF0022D3
:020BAC00A90797
:100BAE00E4FBC294E9139294120BE6D294E9C313B8
:0C0BBE00F90BBB08ED7F057E00020BEA7E
:0F0AE5007FCC120BAC7FBE120BAC120AF4A90728
:100AF400E4FBC294ECC313FCD2943094034304800B
:090B0400120BE60BBB08EBAF0479
:010B0D0022C5
:100A54007FCC120BAC7F44120BAC7F647E00120B74
:010A6400EAA7
:100A6500C202D2947F0C7E00120BEAC2947F507EA4
:100A750000120BEAD2947F0A7E00120BEAA294922E
:060A850002120BE6A202C2
:010A8B002248
:100C0000120A65120A54120AE5EF75F010A4FFAE3D
:090C1000F0E9C4540FFDEF4DFFA3
:010C190022B8
:100ABB00120A65120A54120AE58F1CE9540F75F0DD
:100ACB0064A4FFE5F0C4F854F0C868FEEFC4540FFB
:090ADB0048FFFDAC06E4120226FE
:010AE40022EF
:10000E00EC4D6011E8497017ED33EC3304600DE4EC
:10001E00FCFFFEFD22E933E8330470F80202CB1236
:10002E00029658046009E4CC248150062850090237
:10003E0002D52840030202D2C0E0EB4A7044B980D8
:10004E0006D0E0FB0202C1EF4E701CBD8008EBFF34
:10005E00EAFEE9FD80EBE98DF0A4FEE5F00200F783
:10006E00E9CDF9EAFEEBFFEF89F0A4FCE5F0CE89CD
:10007E00F0A42EFFE435F0CD89F0A42DFEE435F08A
:10008E008067EF4E7005BD80D780C3EF8BF0A4ACB8
:10009E00F0EE8BF0A42CFCE435F0F8EF8AF0A42CF3
:1000AE00E5F038FCE433CB8DF0A42CFCE5F03BF806
:1000BE00EE8AF0A42CFCE5F038F8E433CF89F0A4F6
:1000CE002CFCE5F038CF3400CE89F0A42FFFE5F0FC
:1000DE003EFEE433C98DF0A42EFEE5F039CD8AF054
:1000EE00A42FFFE5F03EFEE43DFD33D0E0FB5007CC
:1000FE000BBB000F0202D5EC2CFCEF33FFEE33FEF0
:06010E00ED33FD0202AD1D
:100114000202D5EC5D046005E8590470030202CBC9
:10012400120296580460F6EC4860F2EC7004FDFE8E
:10013400FF22C860DB2481C85009C39860025006BE
:100144000202D29850CAF582E9294B4A7005AB8263
:100154000202C175F0007C1A7880C3EF9BEE9AED21
:1001640099400DC3EF9BFFEE9AFEED99FDE842F036
:10017400DC23ACF0D0E0FFD0E0FED0E0FDAB822089
:10018400E7101BEB60BAEC2CFCEF33FFEE33FEED13
:1001940033FD0202ADE803F830E705C0F075F00066
:1001A400EF2FFFEE33FEED33FD40B830E7C280AAF7
:1001B40074F8CC6480CCC86480C8F582046043C3FE
:1001C400EB9FF5F0EA9E42F0E99D42F0E89C45F091
:1001D40060305018E5825FFFE582F42B5582FB50B6
:1001E400210ABA001D09B90019088016E5825BFBD3
:1001F400E582F42F5582FF50090EBE00050DBD00A7
:10020400010CC3EB9FF5F0EA9E42F0E99D42F0E851
:0D0214009C45F06007CC4820E701B3EC22C8
:1002210075F020800E75F010800575F0087D007E58
:10023100007F003392D530D503120335EC334010E3
:10024100EF33FFEE33FEED33FDEC33FCD5F0ED2261
:0E025100E5F0247EA2D513CC92E7CDCEFF229D
:10025F00EDD2E7CD33EC3392D524814006E4FFFE97
:10026F00FDFC22FCE4CFCECDCC24E0501174FF80F6
:10027F00EDC3CC13CCCD13CDCE13CECF13CF047093
:07028F00F030D5DE0203355B
:10029600E9D2E7C933E833F892D5EDD2E7CD33ECAE
:0702A60033FC5002B2D52227
:1002AD00EC30E7100FBF000C0EBE00080DBD0004B2
:1002BD000BEB6014A2D5EB13FCED92E7FD2274FF5E
:1002CD00FCFDFEFF22E480F8A2D574FF13FC7D80B7
:0302DD00E480EFCB
:03000000020710E4
:0C071000787FE4F6D8FD75813B020757A6
:1002E000BC000BBE0029EF8DF084FFADF022E4CC02
:1002F000F875F008EF2FFFEE33FEEC33FCEE9DECCB
:10030000984005FCEE9DFE0FD5F0E9E4CEFD22ED10
:10031000F8F5F0EE8420D21CFEADF075F008EF2F5A
:10032000FFED33FD4007985006D5F0F222C398FD4B
:050330000FD5F0EA22E8
:0E033500C3E49FFFE49EFEE49DFDE49CFC22D9
:10071C00020575E493A3F8E493A34003F68001F279
:10072C0008DFF48029E493A3F85407240CC8C333DE
:10073C00C4540F4420C8834004F456800146F6DFAD
:10074C00E4800B01020408102040809009BEE47E76
:10075C00019360BCA3FF543F30E509541FFEE493A2
:10076C00A360010ECF54C025E060A840B8E493A369
:10077C00FAE493A3F8E493A3C8C582C8CAC583CA94
:10078C00F0A3C8C582C8CAC583CADFE9DEE780BE4C
:010A080000ED
:00000001FF
