:0C0B2100C0F9A4B0999282F88090BFFF48
:1009F900020B000002120190021D00000215000006
:100A0900010D00010901010F00010E00010800019B
:080A19001B00011F00010A008F
:1005F900120AAE120AF7E4FF120ADF8F097F057E9D
:10060900001209B17F01120ADFEF75F064A485F0C9
:1006190012F5137F057E001209B1751A0B75170BB8
:1006290075110B75190B751C0B75140B75180B755A
:10063900100B1203E0AF0E7E00EF6003020703E523
:100649001B64016003020703AD08FCC3ED94407409
:10065900809480501B751A0B75170B75110B751942
:100669000B751C0B75140B75180A75100102071F01
:10067900C3ED9440EC648094804024ED9480EC6454
:10068900809480501A751A0B75170B75110B751913
:100699000B751C0B75140B75180A7510028077C33E
:1006A900ED9480EC648094804024ED94C0EC6480E7
:1006B9009480501A751A0B75170B75110B75190B58
:1006C900751C0B75140B75180A7510038048C3ED5A
:1006D90094C0EC64809480403DEC648094815036F1
:1006E900751A0B75170B75110B75190B751C0B7595
:1006F900140B75180A751004801CEF4E7018751AC2
:100709000B75170B75110B75190B751C0B75140BE4
:1007190075180B75100BAD17AF1A120A22AD19AF68
:1007290011120A45AD14AF1C120A68AD10AF1812A8
:050739000A8B02063BE3
:03000B0002000EE2
:10000E00C0E0C0F0C083C082C0D075D000C000C0B8
:10001E0001C002C003C004C005C006C007050CE540
:10002E000C7002050B051EE51E7002051D0516E57A
:10003E001670020515E50C6401450B6003020113F1
:10004E00E50F64016003020113AF09FEEF64017056
:10005E0016F5A07580FF75A080AD0DA8050408806B
:10006E0002C333D8FC801BEF64024E701AF5A075E4
:10007E0080FF75A080AF0DA8077480088002C3139F
:10008E00D8FCF4F5808078AF097E00EF64037034FD
:10009E00F5A07580FF75A080AD0DFCED7005758027
:1000AE007E801FED64014C70057580BD8014ED647B
:1000BE00024C70057580DB8009ED64034C7003758E
:1000CE0080E7803BEF64044E60030201A5F5A07546
:1000DE0080FF75A080AF0DFEEF70057580E7801F65
:1000EE00EF64014E70057580DB8014EF64024E7074
:1000FE00057580BD8009EF64034E700375807E75B3
:10010E00A0000201A5E51FB50C13E4B50B0FF5A079
:10011E007580FF75A0807580FFF5A0807AE50C6470
:10012E0014450B7072F50BF50C050AE50A75F01403
:10013E00A4C39513E5F09512405D750A00AF097ED4
:10014E0000EF6401700E050DE50D94087480948027
:10015E0040458040EF64024E700F050DC3E50D94CF
:10016E0008748094804030802BAF097E00EF6403CA
:10017E00700F050DC3E50D940474809480401880B3
:10018E0013EF64044E7010050DC3E50D94047480D6
:10019E0094804003750D00E51E64207004E51D6417
:1001AE00036003020253E50EFB7A0064017072C312
:1001BE00E51394E8E51294034024AE12AF137C03CA
:1001CE007DE81208FF8F1CAE12AF137C037DE81280
:1001DE0008FF7E007F64CFCDCFCECCCE800B751CBA
:1001EE000BAE12AF137C007D641208FF8F14AE129B
:1001FE00AF137C007D641208FF7E007F0ACFCDCF47
:10020E00CECCCE1208FF8F18AE12AF137C007D0A33
:10021E001208FF8D10751A0B75170B75110B020353
:10022E0055EB64024A6003020358751A0A850917D2
:10023E0075110A75190B751C0B75140B75180B754A
:10024E00100B020358E51E64407004E51D64066041
:10025E0003020358F51DF51EE50EFB7A00640170CE
:10026E0071C3E51394E8E51294034024AE12AF1364
:10027E007C037DE81208FF8F1CAE12AF137C037D4A
:10028E00E81208FF7E007F64CFCDCFCECCCE800BA0
:10029E00751C0BAE12AF137C007D641208FF8F1419
:1002AE00AE12AF137C007D641208FF7E007F0ACF72
:1002BE00CDCFCECCCE1208FF8F18AE12AF137C006E
:1002CE007D0A1208FF8D10751A0A85091775110A15
:1002DE008075EB64024A7072C3E51394E8E51294DC
:1002EE00034024AE12AF137C037DE81208FF8F1C6F
:1002FE00AE12AF137C037DE81208FF7E007F64CF41
:10030E00CDCFCECCCE800B751C0BAE12AF137C00B6
:10031E007D641208FF8F14AE12AF137C007D641241
:10032E0008FF7E007F0ACFCDCFCECCCE1208FF8F36
:10033E0018AE12AF137C007D0A1208FF8D10751ACD
:10034E000A85091775110A75190BE51664C8451546
:10035E007065F515F5167F03120AC78F087E00C368
:10036E00EF9440748094805005751F028049C3EF4E
:10037E009440EE64809480400FEF9480EE648094FD
:10038E00805005751F05802FC3EF9480EE64809416
:10039E0080400FEF94C0EE648094805005751F0A64
:1003AE008015C3EF94C0EE64809480400AEE6480A2
:1003BE0094815003751F13D007D006D005D004D0FA
:1003CE0003D002D001D000D0D0D082D083D0F0D0D4
:0203DE00E0320B
:1003E00020B0367F057E001209B120B024E4F50B61
:1003F000F50CAF0FFEEF700B750F01F50BF50CF55B
:100400000D800EEF64014E7008F50F75A0807580A9
:10041000FF30B0030205B180F830B1030205527F0E
:10042000057E001209B130B10302054DE50EFB7ADD
:1004300000704F750E01F51DF51E751A0A85091716
:1004400075110A75190BC3E51394E8E5129403407E
:1004500024AE12AF137C037DE81208FF8F1CAE128E
:10046000AF137C037DE81208FF7E007F64CFCDCF01
:10047000CECCCE8060751C0BAE12AF137C007D64B9
:100480008053EB64014A707B750E02F51DF51E75F5
:100490001A0A85091775110A75190BC3E51394E833
:1004A000E51294034024AE12AF137C037DE81208DA
:1004B000FF8F1CAE12AF137C037DE81208FF7E0095
:1004C0007F64CFCDCFCECCCE800B751C0BAE12AFE0
:1004D000137C007D641208FF8F14AE12AF137C00F2
:1004E0007D641208FF7E007F0ACFCDCFCECCCE1226
:1004F00008FF8F18AE12AF137C007D0A1208FF8D23
:1005000010804AE50E64027044F50EF51DF51E7567
:100510001A0B75170B75110B75190B751C0B7514D0
:100520000B75180B75100BAD09FF120B0C7F057EB8
:10053000001209B1AE12AF137C007D641208FFAD4A
:10054000077F01120B0C7F057E001209B120B161FB
:1005500080FB20B24C7F057E001209B120B23DAF76
:100560000E7E00EF640170120509C3E5099404745E
:1005700080948040277509048022EF64024E701C2D
:1005800074642513F513E43512F512C3E51394B022
:10059000E512940440067512047513B020B212805F
:1005A000FB20B30D7F057E001209B120B303751B3C
:1005B00001E51B6401704130B33EF51BAF0EFEEF49
:1005C000640170111509D3E5099401748094805079
:1005D0002775090122EF64024E701D749C2513F5E6
:1005E0001374FF3512F512D3E5139490E5129401BC
:0905F000500675120175139022EA
:100AF700438E805389F0758ACD758CD4C28DD28C84
:050B0700D2A9D2AF22CB
:100AAE0075A0A0E4F58075A0807580FF75A0C07557
:090ABE0080FF75A0FF7580FF2286
:100A22008D2075A0C07580011209A375A0C07580C4
:100A32000275A0FFE520900B2193F5807F017E00D7
:030A42000209B1F5
:100A45008D2075A0C07580041209A375A0C075809E
:100A55000875A0FFE520900B2193F5807F017E00AE
:030A65000209B1D2
:100A68008D2075A0C07580101209A375A0C075806F
:100A78002075A0FFE520900B2193F5807F017E0073
:030A88000209B1AF
:100A8B008D2075A0C07580401209A375A0C075801C
:100A9B008075A0FFE520900B2193F5807F017E00F0
:030AAB000209B18C
:0E09A30075A0FFEF900B2193F5807F017E0081
:1009B100D3EF9400EE940040147D4D7C03ED1D7047
:0D09C100011CED4C70F7EF1F70E61E80E387
:0109CE002206
:10095400D2A1D2A0000000000000000000000000AE
:100964000000000000000000000000000000000083
:1009740000000000000000C2A10000000000000010
:100984000000000000000000000000000000000063
:0F099400000000000000000000000000C2A022D0
:1009CF00C2A1D2A000000000000000000000000043
:1009DF000000000000000000000000000000000008
:0A09EF0000000000000000D2A12269
:0B089C001208341208A7AF0512083440
:1008A700D2A10000000000000000000000000000CE
:1008B7000000000000000000000000000000000031
:1008C7000000000000D2A0000000000000000000AF
:1008D7000000000000000000000000000000000011
:1008E7000000000000000000000030A107C2A012B5
:0808F70009CFC322C2A0D322E5
:10083400E4FEEEC3940874809480505BEF30E704C8
:10084400D2A18002C2A1000000000000000000004C
:100854000000000000000000000000000000000094
:10086400000000000000000000D2A0EF25E0FF001F
:100874000000000000000000000000000000000074
:100884000000000000000000000000000000000064
:070894000000C2A00E809BD2
:01089B00223A
:0607CA001208341208A71A
:1007D000E4FEEEC39408748094805057D2A00000C9
:1007E0000000000000000000000000000000000009
:1007F00000000000000000000000000000000000F9
:1008000000EF25E0FF30A103430701C2A000000074
:1008100000000000000000000000000000000000D8
:1008200000000000000000000000000000000000C8
:030830000E809F98
:0108330022A2
:020AC700AD0779
:100AC9001209547F9012089C1209CF1209547F9180
:060AD9001207CA0209CF5A
:020ADF00AD0761
:100AE1001209547FA012089C1209CF1209547FA148
:060AF1001207CA0209CF42
:100B0C00AC071209547FA01208341208A7AF0412C4
:050B1C00089C0209CF56
:0300000002073EB6
:0C073E00787FE4F6D8FD75812002078565
:1008FF00BC000BBE0029EF8DF084FFADF022E4CCDD
:10090F00F875F008EF2FFFEE33FEEC33FCEE9DECA5
:10091F00984005FCEE9DFE0FD5F0E9E4CEFD22EDEB
:10092F00F8F5F0EE8420D21CFEADF075F008EF2F35
:10093F00FFED33FD4007985006D5F0F222C398FD26
:05094F000FD5F0EA22C3
:10074A000205F9E493A3F8E493A34003F68001F2C7
:10075A0008DFF48029E493A3F85407240CC8C333B0
:10076A00C4540F4420C8834004F456800146F6DF7F
:10077A00E4800B01020408102040809009F9E47E0D
:10078A00019360BCA3FF543F30E509541FFEE49374
:10079A00A360010ECF54C025E060A840B8E493A33B
:1007AA00FAE493A3F8E493A3C8C582C8CAC583CA66
:1007BA00F0A3C8C582C8CAC583CADFE9DEE780BE1E
:010A210000D4
:00000001FF
