:0E05ED00011C00011E00011F00C100011D00C5
:10022400C2C2C2C475B00FE5B0640F7003020344C8
:10023400120814E5B0640F7003020344D200D2C262
:10024400D2C475B030E5B0B4300B30C20820C40558
:10025400E4F51C802EE5B0B4300B20C20830C40590
:10026400751C01801EE5B0B4100B30C20830C40503
:10027400751C02800EE5B0B4200930C20630C403F8
:10028400751C03C2C2C2C475B00FAFB0EF24F960CD
:100294001324FC600B24FE600314800E7404800697
:1002A40074088002740C251CF51CE51CB410004075
:1002B4000302033F9002BFF82828730202EF0202F0
:1002C400F40202F90202FE02030302030802030D10
:1002D40002031202031702031C020324020329026D
:1002E400033F02033F020331020339E4F51F802B6D
:1002F400751F018026751F028021751F03801C75E0
:100304001F048017751F058012751F06800D751F49
:10031400078008751F088003751F09751E01801B5F
:10032400751D018016750E01750B01800E750E0189
:10033400750B048006750E01750B05E5B0B40FFB53
:010344002296
:1005FB0001220001211FC10101240601250501264D
:0A060B000401270301280201290160
:10000E001207F1120834120698E52EC394074043E6
:10001E00E52ED39416503CE52E75F00A84F50EE5C8
:10002E002E75F00A8485F00B75090AE52D75F00A18
:10003E0084F50DE52D75F00A8485F01B750A0AE529
:10004E002C75F00A84F50CE52C75F00A8485F00801
:10005E00020202E52EC394074003020202E51DB41C
:10006E00011D750E0B750B0A75090B750D0B751BA6
:10007E000B750A0B750C0B75080B751D02801B207A
:10008E000018750E0A750B0A75090B750D0B751B8D
:10009E000B750A0B750C0B75080BE509B40B0AE50D
:1000AE001EB40105851F098049E50DB40B0AE51E36
:1000BE00B40105851F0D803AE51BB40B0AE51EB48D
:1000CE000105851F1B802BE50AB40B0AE51EB40142
:1000DE0005851F0A801CE50CB40B0AE51EB401054C
:1000EE00851F0C800DE508B40B0BE51EB4010685CB
:1000FE001F08E4F51E30003FE50965247039E50D53
:10010E0065257033E51B6526702DE50A652770277A
:10011E00E50C65287021E508B5291C20010C75A099
:10012E00A0758010D2AFD2A9800D30010A75A0A0A3
:10013E00E4F580C2AFC2A9E51D64026003020202AB
:10014E0075A0A0F580E50965246003020202E50DA5
:10015E0065256003020202E51B65266003020202AA
:10016E00E50A65276003020202E50C6528600302BA
:10017E000202E5086529707C750E0A750B0B750970
:10018E000B750D0B751B0B750A0B750C0B75080B90
:10019E00751D03E51D6403705BE509B40B0AE51ECE
:1001AE00B40105851F098049E50DB40B0AE51EB49F
:1001BE000105851F0D803AE51BB40B0AE51EB4013F
:1001CE0005851F1B802BE50AB40B0AE51EB401053D
:1001DE00851F0A801CE50CB40B0AE51EB4010585CB
:1001EE001F0C800DE508B40B0BE51EB40106851F30
:1001FE0008E4F51E120224AD0BAF0E120720AD0D52
:10020E00AF0912073FAD0AAF1B12075EAD08AF0C68
:06021E0012077D0200172B
:03000B000206BB2F
:1006BB00C0E0C0D0052BE52B7002052AC394C4E51E
:1006CB002A94094008D201752A00752B00D0D0D08E
:0206DB00E0320B
:1007F10075A0A0E4F58075A0807580FF75A0C07517
:0908010080FF75A0FF7580FF2245
:10083400438E805389F0758A9A758CA9C28DD28CA7
:010844002291
:100615000C0FC0F9A4B0999282F88090BFFF010E2B
:100625000B010B0B01090B010D0B011B0B010A0B38
:06063500010C0B01080B93
:100720008D3575A0C075800112080A75A0C075804E
:0F0730000275A0FF740F2535F8E6F58002081456
:10073F008D3575A0C075800412080A75A0C075802C
:0F074F000875A0FF740F2535F8E6F58002081431
:10075E008D3575A0C075801012080A75A0C0758001
:0F076E002075A0FF740F2535F8E6F580020814FA
:10077D008D3575A0C075804012080A75A0C07580B2
:0F078D008075A0FF740F2535F8E6F5800208147B
:0A080A0075A0FF740F2FF8E6F580CB
:0A0814007F167E800000DEFEDFFC90
:01081E0022B7
:09063B00072C003B060000000042
:1007BB00C297E4FEEF30E004D2A38002C2A3D2972B
:0A07CB00C297EFC313FF0EBE08EA49
:0107D5002201
:1007D600E4FFFEEFC313FF30A305430780800353F6
:0A07E600077FD297C2970EBE08E904
:0107F00022E6
:10067400C293C297D2935307FE1207BBED75F00ADB
:1006840084C454F0FFED75F00A84E5F04FFF1207BF
:04069400BBC2932230
:10079C00C293C297D2934307011207BB1207D6C26A
:0E07AC00A3C293EFC4540FF533EF540FF5348E
:0107BA00221C
:100698007C80E4FD7F8E120674E4FBAF04742C2B7F
:1006A800F8E6FD1206740C0C0BBB07EF7D807F8EFD
:0306B800020674C3
:1006FF007C81E4FD7F8E120674AF0412079C742C6C
:10070F002DF8A6070C0C0DBD07EF7D807F8E02061E
:01071F007465
:10059400D2A1D2A000000000000000000000000072
:1005A4000000000000000000000000000000000047
:1005B400000000000000000000000000C2A10000D4
:1005C4000000000000000000000000000000000027
:1005D4000000000000000000000000000000000017
:0905E400000000000000C2A0228A
:10064500C2A1D2A0000000000000000000000000D0
:100655000000000000000000000000000000000095
:0F066500000000000000000000000000D2A122F1
:1003D100EF6004C2A18002D2A10000000000000071
:1003E100000000000000000000000000000000000C
:1003F10000000000000000000000000000000000FC
:1004010000D2A00000000000000000000000000079
:1004110000000000000000000000000000000000DB
:100421000000000000000000000000C2A0D2A100F6
:1004310000000000000000000000000000000000BB
:1004410000000000000000000000000000000000AB
:08045100000000000000002281
:0B0459001204C6120464AF051204C6B2
:10046400D2A1000000000000000000000000000015
:100474000000000000000000000000000000000078
:1004840000000000000000000000D2A000000000F6
:100494000000000000000000000000000000000058
:1004A4000000000000000000000000000000000048
:1004B4000000000030A107C2A0120645C322C2A05A
:0204C400D32241
:1004C600E4FEEF30E704D2A18002C2A100000000E2
:1004D6000000000000000000000000000000000016
:1004E6000000000000000000000000000000000006
:1004F60000000000D2A0EF25E0FF00000000000091
:1005060000000000000000000000000000000000E5
:1005160000000000000000000000000000000000D5
:080526000000C2A00EBE089AFD
:01052E0022AA
:10052F00E4FED2A000000000000000000000000068
:10053F0000000000000000000000000000000000AC
:10054F00000000000000000000000000EF25E0FFA9
:10055F0030A103430701C2A000000000000000000B
:10056F00000000000000000000000000000000007C
:10057F00000000000000000000000000000000006C
:04058F000EBE089EF6
:010593002245
:10081F00AC071205947FA01204C6120464AF041231
:05082F0004590206451A
:0206DD00AD0767
:1006DF001205947FA01204591206451205947FA1AA
:0F06EF001204C612046412052F12046412064589
:0106FE0022D9
:03000000020345B3
:0C034500787FE4F6D8FD75813502038C4A
:1003510002000EE493A3F8E493A34003F68001F2B4
:1003610008DFF48029E493A3F85407240CC8C333AD
:10037100C4540F4420C8834004F456800146F6DF7C
:10038100E4800B01020408102040809005EDE47E1A
:10039100019360BCA3FF543F30E509541FFEE49371
:1003A100A360010ECF54C025E060A840B8E493A338
:1003B100FAE493A3F8E493A3C8C582C8CAC583CA63
:1003C100F0A3C8C582C8CAC583CADFE9DEE780BE1B
:0106440000B5
:00000001FF
