:0C058100C0F9A4B0999282F88090BFFFEE
:1004FC00011F01011200021C0000011A00C100C101
:01050C0001ED
:1000F20012053112049812054A751B0B75170B7500
:10010200150B75190B751E0B75160AE4F518751487
:10011200011203848F13E5127025751B0B75170BE3
:1001220075150B75190B751E0B75160AE51F75F003
:100132000A84F518E51F75F00A8485F014804FE5EE
:1001420012640170491204BBE52375F00A84F51BA1
:10015200E52375F00A8485F017E52275F00A84F527
:1001620019E52275F00A8485F01EE52175F00A84EE
:10017200F518E52175F00A8485F014E52120E008E0
:1001820075150A75160A800675150B75160B120180
:10019200B2AD17AF1B12040CAD19AF1512042FAD7F
:1001A20016AF1E120452AD14AF18120475020113D9
:10054A00438E805389F0E4F58A758C28C28DD28C4B
:05055A00D2A9D2AF227E
:03000B0002000EE2
:10000E00C0E0C0F0C0D075D000C000C007051DE52F
:10001E001D7002051CE51F75F0C8A4651D7004E572
:10002E00F0651C7043E5126401703DF51CF51D74FE
:10003E0008251AF8A613051AE51AB40A2B7512022A
:10004E00D201751A00751B0A751700751500751902
:10005E000B751E0B75160AE50875F00A84F518E582
:10006E000875F00A8485F014E5126402706BE51DC4
:10007E0064C8451C7063F51CF51D30011A20000A7A
:10008E00D20075A0807580FE804F30004CC2007586
:10009E00A0807580FF804220013F751B0A75190BE9
:1000AE00751E0B75160AE51A75F00A84F517E51A12
:1000BE0075F00A8485F0157408251AF8E6FF75F0B8
:1000CE000A84F518EF75F00A8485F014051AE51AFE
:1000DE00B40A06751A00751203D007D000D0D0D01E
:0400EE00F0D0E0323C
:1001B20020B0177F057E001203C720B008E512B4F5
:1001C2000303E4F51220B07880FB20B11C7F057E8A
:1001D200001203C720B10DE512B40208C20175A0D6
:1001E200807580FF20B15980FB20B21A7F057E0006
:1001F2001203C720B20BE5127007751201F51CF548
:100202001D20B23C80FB20B3377F057E001203C75E
:1002120020B32AE5127026E51FB40105751F05807B
:100222001CE51FB40505751F1E8012E51FB41E05CF
:10023200751F3C8008E51FB43C03751F0130B3FDF8
:010242002299
:1005310075A0A0E4F58075A0807580FF75A0C075D9
:0905410080FF75A0FF7580FF2208
:10040C008D2875A0C07580011203B975A0C07580C8
:10041C000275A0FFE52890058193F5807F017E0091
:03042C000203C701
:10042F008D2875A0C07580041203B975A0C07580A2
:10043F000875A0FFE52890058193F5807F017E0068
:03044F000203C7DE
:100452008D2875A0C07580101203B975A0C0758073
:100462002075A0FFE52890058193F5807F017E002D
:030472000203C7BB
:100475008D2875A0C07580401203B975A0C0758020
:100485008075A0FFE52890058193F5807F017E00AA
:030495000203C798
:0E03B90075A0FFEF90058193F5807F017E0017
:1003C700D3EF9400EE940040147D4D7C03ED1D7037
:0D03D700011CED4C70F7EF1F70E61E80E377
:0103E40022F6
:09050D000721323B170000000039
:10055F00E4FEC297EF1392A3EFC313FFD2970EBE21
:02056F0008F092
:010571002267
:10034B00C2930000000000000000C29700000000F4
:10035B0000000000D2930000000000000000120516
:10036B005FED75F00A84C454F0FFED75F00A84E577
:09037B00F04FFF12055FC293224E
:1002CF00E4FDC2930000000000000000C297000090
:1002DF00000000000000D2930000000000000000AA
:1002EF0012055FE4FFC297EDC313FD30A30343056F
:1002FF0080D2970FBF08EEC29300000000000000ED
:10030F0000C293C2970000000000000000D29700C7
:10031F0000000000000000C2A30000000000000069
:10032F0000D2A30000000000000000EDC4540FFF36
:0B033F00ED540FFEEF75F00AA42EFF36
:01034A002290
:100498007C80E4FD7F8E12034BE4FBAF0474212BB8
:1004A800F8E6FD12034B0C0C0BBB07EF7D807F8E2B
:0304B80002034BF1
:1004BB007C81E4FD7F8E12034BE4FBAF041202CF71
:1004CB0074212BF8A6070C0C0BBB07EF7D807F8EDE
:0304DB0002034BCE
:040572007F327E0056
:0B057600EF1FAC0670011E4C70F62257
:0204DE00AD0768
:1004E000E4FBC294ED139294120572D294EDC313FF
:0C04F000FD0BBB08ED7F327E000205769C
:10051700E4FBC294EDC313FDD294309403430580EA
:090527001205720BBB08EBAF05D5
:0105300022A8
:1003E500C202D2947F787E00120576C2947F207E69
:1003F50003120576D2947F647E00120576A294924C
:0604050002120572A202C2
:01040B0022CE
:100384001203E57FCC1204DE7F441204DE7FC87EB4
:10039400001205761203E57FCC1204DE7FBE120440
:1003A400DE120517AA07120517EFC454F0FFEAC4BA
:0403B400540F420799
:0103B8002222
:03000000020243B6
:0C024300787FE4F6D8FD75812802028A5D
:10024F000200F2E493A3F8E493A34003F68001F2D3
:10025F0008DFF48029E493A3F85407240CC8C333B0
:10026F00C4540F4420C8834004F456800146F6DF7F
:10027F00E4800B01020408102040809004FCE47E0F
:10028F00019360BCA3FF543F30E509541FFEE49374
:10029F00A360010ECF54C025E060A840B8E493A33B
:1002AF00FAE493A3F8E493A3C8C582C8CAC583CA66
:1002BF00F0A3C8C582C8CAC583CADFE9DEE780BE1E
:0105160000E4
:00000001FF
