:1006D3001C09C0F9A4B0999282F880908883C6A1BE
:1006E300868EFFBF40792430191202780010082744
:0B06F300101010101010101001080073
:1005FF00E5A0541F4480F5A07580FF53A01FE5A010
:10060F00541F44A0F5A0C284C28653A01FE5A05476
:10061F001F44C0F5A07580FF53A01FE5A0541F44D1
:0A062F00E0F5A07580FF53A01F2224
:10053D00E5A0541F44E0F5A07580FF53A01FE5A072
:10054D00541F44C0F5A0AF087401A807088002C36A
:10055D0033D8FCF58053A01FE5A0541F44E0F5A04F
:10056D0074272508F8E62409F8E6F58053A01F0541
:0A057D0008E508B40803E4F50822BD
:1007E900438901758CF8758A2FD2A9D28CD2AF2290
:03000B0002075198
:10075100C0E0C0D075D000C000C0070526E52670F6
:10076100020525758CF8758A2F12053DD007D0003A
:05077100D0D0D0E03201
:04072A00D2A1D2A0E6
:0F072E0075310A0000000000AF311531EF70F98E
:02073D00C2A157
:0F073F0075310A0000000000AF311531EF70F97D
:03074E00C2A02224
:0407D300C2A1D2A04D
:0F07D70075320A0000000000AF321532EF70F9E2
:0307E600D2A1227B
:09058700EF6004C2A18002D2A1C0
:0F05900075310A0000000000AF311531EF70F92E
:02059F00D2A0E8
:0F05A10075310A0000000000AF311531EF70F91D
:0405B000C2A0D2A172
:0F05B40075310A0000000000AF311531EF70F90A
:0105C3002215
:0206A300D2A1E2
:0F06A50075310A0000000000AF311531EF70F918
:0206B400D2A0D2
:0F06B60075310A0000000000AF311531EF70F907
:0E06C50030A107C2A01207D3C322C2A0D322C5
:0C063900E4FEEF30E704D2A18002C2A171
:0F06450075310A0000000000AD311531ED70F97C
:06065400D2A0EF25E0FF3B
:0F065A0075310A0000000000AD311531ED70F967
:06066900C2A00EBE08CC89
:01066F002268
:04067000E4FED2A032
:0F06740075310A0000000000AD311531ED70F94D
:0C068300EF25E0FF30A103430701C2A0F7
:0F068F0075310A0000000000AD311531ED70F932
:04069E000EBE08D0B4
:0106A2002235
:1005C400AC0712072A7F901206391206A3400122B3
:1005D400AF04120639E4FF12058712072A7F91122D
:1005E40006391206A3400122120670E48FF01203AA
:0B05F400D2E4FF1205871207D3D322C8
:1006FF00AC0712072A7F901206391206A340012277
:10070F007F401206391206A3400122AF04120639A8
:0B071F001206A34001221207D3D322D0
:10077600EF600DE5A0541F44A0F5A0758040800BE6
:0F078600E5A0541F44A0F5A0E4F58053A01F2266
:10079500EF600DE5A0541F4480F5A075807F800BA8
:0F07A500E5A0541F4480F5A07580FF53A01F22CC
:1007B400EF600DE5A0541F4480F5A07580BF800B49
:0F07C400E5A0541F4480F5A07580FF53A01F22AD
:0E07F90000007F057E347DC3DDFEDEFCDFFAEE
:0108070022CE
:1003FF001205FF1207E97B007A00792F7F031205A0
:10040F00C450047F018002E4FF120795AF3012063B
:10041F00FF50047F018002E4FF1207B4AE2FAF300C
:10042F007C007D0512036BAC06AD07E41202B1E44C
:10043F00FBFA797F784312020FE4FBFA79C878420E
:10044F00120106E4FBFAF9783F1200151202EA8E48
:10045F002F8F307C007D6412037DEF2411F527AEC2
:10046F002FAF307C007D6412037DAA04AB057D0A9B
:10047F007C00AF03AE0212037D8F287D0A7C00AF94
:10048F0003AE0212037D8D29D3E5309496E52F94A8
:10049F000040047F018002E4FF1207761207F90281
:0204AF00040542
:10000E00020356E86480F8E933E83360110460F0C7
:10001E00ED33EC337009E8FCE9FDEAFEEBFF220458
:10002E0060DED3EB9FEA9EE99DE8C2E78CF0C2F753
:10003E0095F0400CE8CCF8E9CDF9EACEFAEBCFFB1F
:10004E0012032185D0F05804700320D5B3E8047054
:10005E00075002B2D502036092D5EC0460F7E4CCEF
:10006E00C0E0C398F8603B94186008400DD0E0FBE8
:10007E00020338E4FBFAC9FC8028E830E406E4C940
:10008E00FBE4CAFCE830E305E4C9CACBFCE854073C
:10009E006010F8C3E913F9EA13FAEB13FBEC13FC47
:1000AE00D8F130F52FC3E49CFCEF9BFFEE9AFEEDEA
:1000BE0099FDD0E0FBEF4E4D4C701222DB03020394
:1000CE005DEC2CFCEF33FFEE33FEED33FDED30E750
:1000DE00EB020338EF2BFFEE3AFEED39FDD0E0FBDD
:1000EE0050130BBB0003020360ED13FDEE13FEEF86
:0800FE0013FFEC13FC020338B0
:10010600EC4D6011E8497017ED33EC3304600DE4F3
:10011600FCFFFEFD22E933E8330470F802035612B1
:10012600032158046009E4CC2481500628500902B2
:10013600036028400302035DC0E0EB4A7044B980C7
:1001460006D0E0FB02034CEF4E701CBD8008EBFFAF
:10015600EAFEE9FD80EBE98DF0A4FEE5F00201EF91
:10016600E9CDF9EAFEEBFFEF89F0A4FCE5F0CE89D4
:10017600F0A42EFFE435F0CD89F0A42DFEE435F091
:100186008067EF4E7005BD80D780C3EF8BF0A4ACBF
:10019600F0EE8BF0A42CFCE435F0F8EF8AF0A42CFA
:1001A600E5F038FCE433CB8DF0A42CFCE5F03BF80D
:1001B600EE8AF0A42CFCE5F038F8E433CF89F0A4FD
:1001C6002CFCE5F038CF3400CE89F0A42FFFE5F003
:1001D6003EFEE433C98DF0A42EFEE5F039CD8AF05B
:1001E600A42FFFE5F03EFEE43DFD33D0E0FB5007D3
:1001F6000BBB000F020360EC2CFCEF33FFEE33FE6B
:06020600ED33FD02033898
:10020C00020360EC5D046005E859047003020356B8
:10021C00120321580460F6EC4860F2EC7004FDFE09
:10022C00FF22C860DB2481C85009C39860025006C5
:10023C0002035D9850CAF582E9294B4A7005AB82DE
:10024C0002034C75F0007C1A7880C3EF9BEE9AED9C
:10025C0099400DC3EF9BFFEE9AFEED99FDE842F03D
:10026C00DC23ACF0D0E0FFD0E0FED0E0FDAB822090
:10027C00E7101BEB60BAEC2CFCEF33FFEE33FEED1A
:10028C0033FD020338E803F830E705C0F075F000E1
:10029C00EF2FFFEE33FEED33FD40B830E7C280AAFE
:1002AC0075F020800E75F010800575F0087D007ECD
:1002BC00007F003392D530D5031203F1EC3340109C
:1002CC00EF33FFEE33FEED33FDEC33FCD5F0ED22D6
:0E02DC00E5F0247EA2D513CC92E7CDCEFF2212
:1002EA00EDD2E7CD33EC3392D524814006E4FFFE0C
:1002FA00FDFC22FCE4CFCECDCC24E0501174FF806B
:10030A00EDC3CC13CCCD13CDCE13CECF13CF047007
:07031A00F030D5DE0203F113
:10032100E9D2E7C933E833F892D5EDD2E7CD33EC22
:0703310033FC5002B2D5229B
:10033800EC30E7100FBF000C0EBE00080DBD000426
:100348000BEB6014A2D5EB13FCED92E7FD2274FFD2
:10035800FCFDFEFF22E480F8A2D574FF13FC7D802B
:03036800E480EF3F
:030000000204B146
:0C04B100787FE4F6D8FD7581320204F873
:10036B00EF8DF0A4A8F0CF8CF0A428CE8DF0A42EA6
:02037B00FE2260
:10037D00BC000BBE0029EF8DF084FFADF022E4CC64
:10038D00F875F008EF2FFFEE33FEEC33FCEE9DEC2D
:10039D00984005FCEE9DFE0FD5F0E9E4CEFD22ED73
:1003AD00F8F5F0EE8420D21CFEADF075F008EF2FBD
:1003BD00FFED33FD4007985006D5F0F222C398FDAE
:0503CD000FD5F0EA224B
:1003D200BB010A89828A83F0E5F0A3F0225006F776
:0F03E20009A7F01922BBFE06F3E5F009F3192273
:0E03F100C3E49FFFE49EFEE49DFDE49CFC221D
:1004BD000203FFE493A3F8E493A34003F68001F253
:1004CD0008DFF48029E493A3F85407240CC8C33340
:1004DD00C4540F4420C8834004F456800146F6DF0F
:1004ED00E4800B01020408102040809006D3E47EC6
:1004FD00019360BCA3FF543F30E509541FFEE49304
:10050D00A360010ECF54C025E060A840B8E493A3CA
:10051D00FAE493A3F8E493A3C8C582C8CAC583CAF5
:10052D00F0A3C8C582C8CAC583CADFE9DEE780BEAD
:0106FE0000FB
:00000001FF
