:0C087E00C0F9A4B0999282F88090BFFFEE
:0C082A00C103C104C101C102C185C100AD
:1001D6001208111207CB75A0807580FEE4F5107524
:1001E6000D08750B0A750F03F511750C0BF50EF559
:1001F6000A7F101208408F081207EE7F03120715B8
:100206008F0930020302028EE509C395085008756E
:10021600A0A0758010800675A0A0E4F58030032D9F
:10022600300404C2040508300104C2011508751023
:100236000A750D0A750B0B750F0B75110B750C0BEB
:10024600E50875F00A84F50EE50802031F3003037E
:10025600020326E51475F00A84F510E51475F00A14
:100266008485F00D750B0AE51375F00A84F50FE524
:100276001375F00A8485F011750C0BE50975F00A03
:1002860084F50EE50902031F200203020326E50991
:10029600C39508501720051430000875A0A0758076
:1002A60010800920000675A0A0E4F580E509C39535
:1002B60008501930051630000875A0A075805080CA
:1002C6002620002375A0A0758040801BE509D395E4
:1002D60008401430000875A0A07580108009200021
:1002E6000675A0A0E4F580E51475F00A84F510E51E
:1002F6001475F00A8485F00D750B0AE51375F00A7E
:1003060084F50FE51375F00A8485F011750C0BE57D
:100316000975F00A84F50EE50975F00A8485F00A78
:10032600120348AD0DAF1012073FAD0FAF0B12070A
:1003360062AD0CAF11120785AD0AAF0E1207A80207
:0203460001FEB6
:1003480020B0277F057E001206F720B01820020A89
:10035800D20275A0807580FD800B300208C202753C
:10036800A0807580FE20B06B80FB20B12C7F057EBD
:10037800001206F720B11D200215200304D20380C5
:1003880013300310C203AD087F10120856800530E1
:100398000202B20520B13C80FB20B21B7F057E0023
:1003A8001206F720B20C200204D2048005300202A3
:1003B800D20020B21E80FB20B3197F057E001206F2
:1003C800F720B30C200204D2018005300202C200DB
:0403D80030B3FD221F
:1008110075A0A0E4F58075A0807580FF75A0C075F6
:0908210080FF75A0FF7580FF2225
:10073F008D1975A0C07580011206E975A0C075806E
:10074F000275A0FFE51990087E93F5807F017E006A
:03075F000206F798
:100762008D1975A0C07580041206E975A0C0758048
:100772000875A0FFE51990087E93F5807F017E0041
:030782000206F775
:100785008D1975A0C07580101206E975A0C0758019
:100795002075A0FFE51990087E93F5807F017E0006
:0307A5000206F752
:1007A8008D1975A0C07580401206E975A0C07580C6
:1007B8008075A0FFE51990087E93F5807F017E0083
:0307C8000206F72F
:0E06E90075A0FFEF90087E93F5807F017E00E4
:1006F700D3EF9400EE940040147D4D7C03ED1D7004
:0D070700011CED4C70F7EF1F70E61E80E343
:0107140022C2
:10061F00D2A1D2A0000000000000000000000000E6
:10062F0000000000000000000000000000000000BB
:10063F00000000000000000000000000C2A1000048
:10064F00000000000000000000000000000000009B
:10065F00000000000000000000000000000000008B
:09066F00000000000000C2A022FE
:0906B1001205511204EF1205BA02
:1006BA00C2A1D2A00000000000000000000000005B
:1006CA000000000000000000000000000000000020
:0F06DA00000000000000000000000000D2A1227C
:0B04E4001205511204EFAF0512055184
:1004EF00D2A100000000000000000000000000008A
:1004FF0000000000000000000000000000000000ED
:10050F0000000000000000000000D2A0000000006A
:10051F0000000000000000000000000000000000CC
:10052F0000000000000000000000000000000000BC
:10053F000000000030A107C2A01206BAC322C2A059
:02054F00D322B5
:10055100E4FEEF30E704D2A18002C2A10000000056
:10056100000000000000000000000000000000008A
:10057100000000000000000000000000000000007A
:1005810000000000D2A0EF25E0FF00000000000005
:10059100000000000000000000000000000000005A
:1005A100000000000000000000000000000000004A
:0805B1000000C2A00EBE089A72
:0105B900221F
:1005BA00E4FED2A0000000000000000000000000DD
:1005CA000000000000000000000000000000000021
:1005DA00000000000000000000000000EF25E0FF1E
:1005EA0030A103430701C2A0000000000000000080
:1005FA0000000000000000000000000000000000F1
:10060A0000000000000000000000000000000000E0
:04061A000EBE089E6A
:01061E0022B9
:02071500AD072E
:1007170012061F7F901204E41206BA12061F7F9179
:100727001206B1AC07E41201137B147AAE79C778CD
:070737003E1200031201470E
:01073E002298
:02084000AD0702
:1008420012061F7FA01204E41206BA12061F7FA12D
:030852001206B1DA
:010855002280
:10085600AC0712061F7FA01205511204EFAF041257
:0508660004E40206BAE3
:090836000712001E08000000007A
:10086B00E4FEC297EF1392A3EFC313FFD2970EBE12
:02087B0008F083
:01087D002258
:10067800C2930000000000000000C29700000000C4
:1006880000000000D29300000000000000001208E3
:100698006BED75F00A84C454F0FFED75F00A84E53B
:0906A800F04FFF12086BC293220F
:10046800E4FDC2930000000000000000C2970000F5
:10047800000000000000D29300000000000000000F
:1004880012086BE4FFC297EDC313FD30A3034305C5
:1004980080D2970FBF08EEC2930000000000000052
:1004A80000C293C2970000000000000000D297002D
:1004B80000000000000000C2A300000000000000CF
:1004C80000D2A30000000000000000EDC4540FFF9C
:0B04D800ED540FFEEF75F00AA42EFF9C
:0104E30022F6
:1007CB007C80E4FD7F8E120678E4FBAF0474122B61
:1007DB00F8E6FD1206780C0C0BBB07EF7D807F8EC5
:0307EB000206788B
:1007EE007C81E4FD7F8E120678E4FBAF0412046870
:1007FE0074122BF8A6070C0C0BBB07EF7D807F8EB7
:03080E0002067867
:10000300EC4D6011E8497017ED33EC3304600DE4F7
:10001300FCFFFEFD22E933E8330470F80201B3125A
:10002300017E58046009E4CC24815006285009025B
:1000330001BD2840030201BAC0E0EB4A7044B98015
:1000430006D0E0FB0201A9EF4E701CBD8008EBFF58
:10005300EAFEE9FD80EBE98DF0A4FEE5F00200EC99
:10006300E9CDF9EAFEEBFFEF89F0A4FCE5F0CE89D8
:10007300F0A42EFFE435F0CD89F0A42DFEE435F095
:100083008067EF4E7005BD80D780C3EF8BF0A4ACC3
:10009300F0EE8BF0A42CFCE435F0F8EF8AF0A42CFE
:1000A300E5F038FCE433CB8DF0A42CFCE5F03BF811
:1000B300EE8AF0A42CFCE5F038F8E433CF89F0A401
:1000C3002CFCE5F038CF3400CE89F0A42FFFE5F007
:1000D3003EFEE433C98DF0A42EFEE5F039CD8AF05F
:1000E300A42FFFE5F03EFEE43DFD33D0E0FB5007D7
:1000F3000BBB000F0201BDEC2CFCEF33FFEE33FE14
:06010300ED33FD02019541
:1001090075F020800E75F010800575F0087D007E71
:10011900007F003392D530D5031201C8EC3340106B
:10012900EF33FFEE33FEED33FDEC33FCD5F0ED227A
:0E013900E5F0247EA2D513CC92E7CDCEFF22B6
:10014700EDD2E7CD33EC3392D524814006E4FFFEB0
:10015700FDFC22FCE4CFCECDCC24E0501174FF800F
:10016700EDC3CC13CCCD13CDCE13CECF13CF0470AC
:07017700F030D5DE0201C8E3
:10017E00E9D2E7C933E833F892D5EDD2E7CD33ECC7
:07018E0033FC5002B2D52240
:10019500EC30E7100FBF000C0EBE00080DBD0004CB
:1001A5000BEB6014A2D5EB13FCED92E7FD2274FF77
:1001B500FCFDFEFF22E480F8A2D574FF13FC7D80D0
:0301C500E480EFE4
:030000000203DC1C
:0C03DC00787FE4F6D8FD75812002042330
:0E01C800C3E49FFFE49EFEE49DFDE49CFC2248
:1003E8000201D6E493A3F8E493A34003F68001F254
:1003F80008DFF48029E493A3F85407240CC8C33316
:10040800C4540F4420C8834004F456800146F6DFE4
:10041800E4800B010204081020408090082AE47E42
:10042800019360BCA3FF543F30E509541FFEE493D9
:10043800A360010ECF54C025E060A840B8E493A3A0
:10044800FAE493A3F8E493A3C8C582C8CAC583CACB
:10045800F0A3C8C582C8CAC583CADFE9DEE780BE83
:01083F0000B8
:00000001FF
