:10077A00010E0B010B0B01090B010D0B011B0B01E8
:10078A000A0B010C0B01080B0C0FC0F9A4B09992CB
:06079A0082F88090BFFF11
:1007F9008D1F75A0C07580011208BA75A0C07580DB
:0F0809000275A0FF740F251FF8E6F5800208C4E2
:100818008D1F75A0C07580041208BA75A0C07580B8
:0F0828000875A0FF740F251FF8E6F5800208C4BD
:100837008D1F75A0C07580101208BA75A0C075808D
:0F0847002075A0FF740F251FF8E6F5800208C486
:100856008D1F75A0C07580401208BA75A0C075803E
:0F0866008075A0FF740F251FF8E6F5800208C407
:0A08BA0075A0FF740F2FF8E6F5801B
:0A08C4007F167E800000DEFEDFFCE0
:0108CE002207
:1006CC00D2A1D2A000000000000000000000000039
:1006DC00000000000000000000000000000000000E
:1006EC00000000000000000000000000C2A100009B
:1006FC0000000000000000000000000000000000EE
:10070C0000000000000000000000000000000000DD
:09071C00000000000000C2A02250
:0C07BE001205FE12059C12066712059C35
:1007CA00C2A1D2A00000000000000000000000004A
:1007DA00000000000000000000000000000000000F
:0F07EA00000000000000000000000000D2A1226B
:10049200EF6004C2A18002D2A100000000000000AF
:1004A200000000000000000000000000000000004A
:1004B200000000000000000000000000000000003A
:1004C20000D2A000000000000000000000000000B8
:1004D200000000000000000000000000000000001A
:1004E2000000000000000000000000C2A0D2A10035
:1004F20000000000000000000000000000000000FA
:1005020000000000000000000000000000000000E9
:080512000000000000000022BF
:0B0591001205FE12059CAF051205FECE
:10059C00D2A10000000000000000000000000000DC
:1005AC00000000000000000000000000000000003F
:1005BC0000000000000000000000D2A000000000BD
:1005CC00000000000000000000000000000000001F
:1005DC00000000000000000000000000000000000F
:1005EC000000000030A107C2A01207CAC322C2A09B
:0205FC00D32208
:1005FE00E4FEEF30E704D2A18002C2A100000000A9
:10060E0000000000000000000000000000000000DC
:10061E0000000000000000000000000000000000CC
:10062E0000000000D2A0EF25E0FF00000000000057
:10063E0000000000000000000000000000000000AC
:10064E00000000000000000000000000000000009C
:08065E000000C2A00EBE089AC4
:010666002271
:10066700E4FED2A00000000000000000000000002F
:100677000000000000000000000000000000000073
:10068700000000000000000000000000EF25E0FF70
:1006970030A103430701C2A00000000000000000D2
:1006A7000000000000000000000000000000000043
:1006B7000000000000000000000000000000000033
:0406C7000EBE089EBD
:0106CB00220C
:02088E00AD07B4
:100890001206CC7F901205911207CA1206CC7F91E6
:0308A0001207BE7E
:0108A3002232
:1008CF00AC071206CC7FA01205FE12059CAF0412D6
:0508DF0005910207CAAB
:0208A400AD079E
:1008A6001206CC7FA01205911207CA1206CC7FA1B0
:0308B6001207BE68
:0108B900221C
:0B07A000011E00011D00011C00C10033
:10000E0020B01A1208C420B00C200004D2008005C3
:10001E00300002C20030B0030200CD80F820B15F84
:10002E001208C420B154E51E7005751E01804BE503
:10003E001EB40105751E028041E51E6402703BF57B
:10004E001E750E0B750B0B75090B750D0B751B0BBA
:10005E00750A0B750C0B75080B1208C4AD29E4FF5D
:10006E001208CF1208C4AE2CAF2D7C007D0A1207E9
:10007E00258F2EAD2E7F011208CF20B14280FB209E
:10008E00B23D1208C420B234E51EB4010E0529E5B6
:10009E0029C3940440267529048021E51EB4021C50
:1000AE007464252DF52DE4352CF52CC3E52D94B077
:1000BE00E52C94044006752C04752DB030B2FD204D
:1000CE00B349E51E60451208C420B337E51E603300
:1000DE00B4010E1529E529D3940150277529018005
:1000EE0022E51EB4021D749C252DF52D74FF352CB2
:1000FE00F52CD3E52D9490E52C94015006752C012A
:10010E00752D9030B3030201D480F8E51E60030212
:10011E0001D430B3030201D430B3030201D4E51E7F
:10012E0060030201D41208C430B3030201D4E51EE9
:10013E0060030201D4E52BC394405019750E0B7564
:10014E000B0B75090B750D0B751B0B750A0B750CCF
:10015E000A75080122E52BC39440401FE52B9480BD
:10016E005019750E0B750B0B75090B750D0B751B59
:10017E000B750A0B750C0A75080222E52BC39480C9
:10018E00401FE52B94C05019750E0B750B0B75099E
:10019E000B750D0B751B0B750A0B750C0A75080389
:1001AE0022E52BC394C0401E748094815018750EA6
:1001BE000B750B0B75090B750D0B751B0B750A0B60
:0701CE00750C0A75080422FC
:1007AB00012904022C0190C101012B01012E000132
:0207BB00250017
:1001D5001208751208E4D2A9D2AF1208C4E4FF12BE
:1001E50008A48F291208C47F011208A4EF75F00A2C
:1001F500A485F02CF52D7F0312088E8F2BE51E703C
:100205000C750E0B750B0B75090B02030AE51E64C5
:10021500017045C3E52D94E8E52C940340163001A3
:1002250002804C300103020319750E0B750B0B751B
:10023500090B8044C3E52D94E8E52C9403400302A3
:1002450003193001028073300103020319750E0B87
:10025500750B0B75090B806BE51E640260030203C9
:1002650019C3E52D94E8E52C9403404030012F7522
:100275000E0A85290B75090A750D0BAE2CAF2D7C61
:10028500037DE81207258F1BAE2CAF2D7C007D6406
:100295001207257C007D0A1207258D0A803820016A
:1002A50073750E0A85290B75090A8059C3E52D94C6
:1002B500E8E52C9403505D30013F750E0A85290B46
:1002C50075090A750D0B751B0BAE2CAF2D7C007DCA
:1002D500641207258F0AAE2CAF2D7C007D0A12070C
:1002E500257C007D0A1207258D0CAE2CAF2D7C00D8
:1002F5007D0A1207258D08801B200118750E0A85B9
:10030500290B75090A750D0B751B0B750A0B750CF9
:100315000B75080B12000EAD0BAF0E1207F9AD0DE4
:10032500AF09120818AD0AAF1B120837AD08AF0C9C
:060335001208560201FB54
:03000B0002051AD1
:10051A00C0E0C0F0C083C082C0D075D000C000C0A7
:0D052A0001C002C003C004C005C006C00728
:10053700300023E52CC313FEE52D13FF0522E5222A
:1005470070020521C39FE5219E400B75210075228E
:1005570000AF2912033B0524E52470020523C39449
:0F05670090E52394014008752300752400B2012C
:10057600D007D006D005D004D003D002D001D000D9
:0B058600D0D0D082D083D0F0D0E03283
:02033B00AE070B
:10033D00EE640170267526FE75A080AF26A825EF08
:10034D0008800123D8FDF5800525E525C3940850C7
:10035D0003020405E4F5257526FE22EE64027023E2
:10036D0075267F75A080AF26A825EF08800103D8DC
:10037D00FDF5800525E525C39408407CE4F525753C
:10038D00267F22EE6403703675277F7528FE75A0D3
:10039D0080AF28A825EF08800123D8FDFDAF27A841
:1003AD0025EF08800103D8FD5DF5800525E525D3F2
:1003BD0094044044E4F52575277F7528FE22EE64EC
:1003CD000470357527EF7528F775A080AF28A8251F
:1003DD00EF08800103D8FDFEAF27A825EF088001A7
:1003ED0023D8FD5EF5800525E525D394044009E469
:0803FD00F5257527EF7528F7BF
:0104050022D4
:1008E400438E805389F0758A9A758CA9C28DD28CF7
:0108F40022E1
:1008750075A0A0E4F58075A0807580FF75A0C07592
:0908850080FF75A0FF7580FF22C1
:03000000020406F1
:0C040600787FE4F6D8FD75812E02044DCD
:10072500BC000BBE0029EF8DF084FFADF022E4CCB8
:10073500F875F008EF2FFFEE33FEEC33FCEE9DEC81
:10074500984005FCEE9DFE0FD5F0E9E4CEFD22EDC7
:10075500F8F5F0EE8420D21CFEADF075F008EF2F11
:10076500FFED33FD4007985006D5F0F222C398FD02
:050775000FD5F0EA229F
:100412000201D5E493A3F8E493A34003F68001F22A
:1004220008DFF48029E493A3F85407240CC8C333EB
:10043200C4540F4420C8834004F456800146F6DFBA
:10044200E4800B010204081020408090077AE47EC9
:10045200019360BCA3FF543F30E509541FFEE493AF
:10046200A360010ECF54C025E060A840B8E493A376
:10047200FAE493A3F8E493A3C8C582C8CAC583CAA1
:10048200F0A3C8C582C8CAC583CADFE9DEE780BE59
:0107BD00003B
:00000001FF
