:1001C6001209C0F9A4B0999282F880908883C6A1DA
:1001D600868EFFBF081D1010101010101010010899
:0101E6000018
:10016700E5A0541F4480F5A07580FF53A01FE5A0AC
:10017700541F44A0F5A0C284C28653A01FE5A05413
:100187001F44C0F5A07580FF53A01FE5A0541F446E
:0A019700E0F5A07580FF53A01F22C1
:10009A00E5A0541F44E0F5A07580FF53A01FE5A01A
:1000AA00541F44C0F5A0AF087401A807088002C312
:1000BA0033D8FCF58053A01FE5A0541F44E0F5A0F7
:1000CA00741D2508F8E62409F8E6F58053A01F05F3
:0A00DA0008E508B40803E4F5082265
:10024A00438901758CF8758A2FD2A9D28CD2AF2234
:03000B000201A14E
:1001A100C0E0C0D075D000C000C007051CE51C70C0
:1001B10002051B758CF8758A2F12009AD007D000A2
:0501C100D0D0D0E032B7
:1001E800C297E4FEEF30E004D2A38002C2A3D29704
:0A01F800C297EFC313FF0EBE08EA22
:0102020022D9
:10020300E4FFFEEFC313FF30A305430780800353CE
:0A021300077FD297C2970EBE08E9DC
:01021D0022BE
:10021E00AE07C293C297D2935306FEAF061201E801
:08022E00AF051201E8C29322A2
:10023600C293C297D2934307011201E8120203C286
:0302460093C2A3BD
:010249002292
:10012900E4FD7F8E12021E7D587F8012021E0D7F14
:100139008212021E7D237F8412021E7D257F861274
:10014900021E7D017F8812021E7D067F8A12021E11
:0E0159007D187F8C12021E7D807F8E02021E9A
:1000E40012016712024A120129751F117522117F2C
:1000F40084120236AD07EDC4540FF51DED540FF50F
:100104001E7F82120236AC07ECC4540FF520EC5467
:100114000FF5217F80120236EFC4540FF523EF54FC
:050124000FF52480C46A
:0300000002000EED
:0C000E00787FE4F6D8FD758124020055CF
:10001A000200E4E493A3F8E493A34003F68001F218
:10002A0008DFF48029E493A3F85407240CC8C333E7
:10003A00C4540F4420C8834004F456800146F6DFB6
:10004A00E4800B01020408102040809001C6E47E7F
:10005A00019360BCA3FF543F30E509541FFEE493AB
:10006A00A360010ECF54C025E060A840B8E493A372
:10007A00FAE493A3F8E493A3C8C582C8CAC583CA9D
:10008A00F0A3C8C582C8CAC583CADFE9DEE780BE55
:0101E7000017
:00000001FF
