:100774001C22C0F9A4B0999282F880908883C6A103
:10078400868EFFBF40792430191202780010084188
:100794001010101010101010012100C181C182012D
:0207A400401003
:10069D00E5A0541F4480F5A07580FF53A01FE5A071
:1006AD00541F44A0F5A0C284C28653A01FE5A054D8
:1006BD001F44C0F5A07580FF53A01FE5A0541F4433
:0A06CD00E0F5A07580FF53A01F2286
:10055500E5A0541F44E0F5A07580FF53A01FE5A05A
:10056500541F44C0F5A0AF217401A807088002C339
:1005750033D8FCF58053A01FE5A0541F44E0F5A037
:1005850074412521F8E62422F8E6F58053A01F05DD
:0A05950021E521B40803E4F521225A
:10090400438901758CF8758A2FD2A9D28CD2AF2273
:03000B0002070EDB
:10070E00C0E0C0D075D000C000C007053FE53F7007
:10071E0002053E758CF8758A2F120555E53F646407
:10072E00453E7006F53EF53FD200D007D000D0D042
:03073E00D0E032D6
:0408D4007F057E001E
:1008D800EF1FAA0670011E4A600BE4FDEDC3940CDD
:0508E80050EE0D80F749
:0108ED0022E8
:10080700C203D2947F0C7E001208D8C2947F507E18
:10081700001208D8D2947F0A7E001208D8A29492B8
:06082700031208D4A20335
:01082D0022A8
:02089A00A907AC
:10089C00E4FBC29400E91392941208D4D294E9C3F5
:0D08AC0013F90BBB08EC7F057E000208D895
:1008B900E4FBC29400ECC313FCD2943094034304C8
:0A08C900801208D40BBB08EAAF044C
:0108D3002202
:10059F001208077FCC12089A7F4412089A7FC87EF0
:1005AF00001208D81208077FCC12089A7FBE1208D3
:1005BF009A1208B9A9071208B9EF540FFEE9FFE420
:1005CF00AD07AC06120211E4FBFA7920783F120155
:0105DF000615
:0105E00022F8
:04082E00D2A1D2A0E1
:0F083200750C0A0000000000AF0C150CEF70F9F8
:02084100C2A152
:0F084300750C0A0000000000AF0C150CEF70F9E7
:03085200C2A0221F
:0408EE00C2A1D2A031
:0F08F200750D0A0000000000AF0D150DEF70F935
:03090100D2A1225E
:09066000EF6004C2A18002D2A1E6
:0F066900750C0A0000000000AF0C150CEF70F9C3
:02067800D2A00E
:0F067A00750C0A0000000000AF0C150CEF70F9B2
:04068900C2A0D2A198
:0F068D00750C0A0000000000AF0C150CEF70F99F
:01069C00223B
:0207A700D2A1DD
:0F07A900750C0A0000000000AF0C150CEF70F982
:0207B800D2A0CD
:0F07BA00750C0A0000000000AF0C150CEF70F971
:0E07C90030A107C2A01208EEC322C2A0D322A4
:0C06D700E4FEEF30E704D2A18002C2A1D3
:0F06E300750C0A0000000000AD0C150CED70F94D
:0606F200D2A0EF25E0FF9D
:0F06F800750C0A0000000000AD0C150CED70F938
:06070700C2A00EBE08CCEA
:01070D0022C9
:04074100E4FED2A060
:0F074500750C0A0000000000AD0C150CED70F9EA
:0C075400EF25E0FF30A103430701C2A025
:0F076000750C0A0000000000AD0C150CED70F9CF
:04076F000EBE08D0E2
:010773002263
:10085500AC05AB0712082E7FA01206D71207A7AF6B
:10086500031206D71207A7AF041206D71207A7125D
:0508750008EE02091469
:0207D700AC076D
:1007D90012082E7FA01206D71207A7AF041206D758
:1007E9001207A712082E7FA11206D71207A7120710
:0D07F90041AE07E4FF1206601208EEAF06E5
:0108060022CF
:080914007F6C7E91DEFEDFFC2A
:01091C0022B8
:1005E10020B00E12091420B005754007B20230B0D8
:1005F100FD20B10C12091420B10375400630B1FD84
:1006010020B20E12091420B205754005B20130B2B4
:10061100FD20B30C12091420B30375400430B3FD5F
:0106210022B6
:10032E0012062212069D120904E4FDFF1208551250
:10033E0005E130000CC20012059F12024A8E088F92
:10034E0009E540B4040B754503E4F546754705F51C
:10035E0048E5406405600302040320013DAE08AF8A
:10036E0009FC7D641202CB8F45AE08AF097C007D7F
:10037E00641202CBAA04AB057D0A7C00AF03AE0269
:10038E001202CBEF2412F5467D0A7C00AF03AE02BB
:10039E001202CB8D4775480C805BAC08AD09E41298
:1003AE0002117B667A6679E6783F120106E4FBFA63
:1003BE00F9784212001512024A8E0A8F0B7C007DCC
:1003CE00641202CB8F45AE0AAF0B7C007D64120225
:1003DE00CBAA04AB057D0A7C00AF03AE021202CBA2
:1003EE00EF2412F5467D0A7C00AF03AE021202CB5B
:1003FE008D4775480FE540B40607AD09E4FF1208B6
:10040E0055E5406407600302033D200246FF1207D4
:10041E00D77508008F09AE087C007D641202CB8F61
:10042E0045AE08AF097C007D641202CBAA04AB0571
:10043E007D0A7C00AF03AE021202CBEF2412F5460A
:10044E007D0A7C00AF03AE021202CB8D4775480CBD
:10045E0002033DE4FF1207D77508008F09AC08AD03
:10046E0009E41202117B667A6679E6783F1201067C
:10047E00E4FBFAF9784212001512024A8E0A8F0B2B
:10048E007C007D641202CB8F45AE0AAF0B7C007DE3
:10049E00641202CBAA04AB057D0A7C00AF03AE0248
:1004AE001202CBEF2412F5467D0A7C00AF03AE029A
:0B04BE001202CB8D4775480F02033D72
:1006220075A080E4F58075A0C07580FF75A0E0F527
:10063200807FB87E0B12087A75A0807580FF75A046
:10064200C07580FF75A0FF7580FF75A0A075804002
:0E0652007FC87E0012087A75A0A0E4F5802211
:10087A00D3EF9400EE6480948040147D4D7C03EDA8
:0F088A001D70011CED4C70F7EF1F70E41E80E134
:01089900223C
:10000E000202B6E86480F8E933E83360110460F068
:10001E00ED33EC337009E8FCE9FDEAFEEBFF220458
:10002E0060DED3EB9FEA9EE99DE8C2E78CF0C2F753
:10003E0095F0400CE8CCF8E9CDF9EACEFAEBCFFB1F
:10004E0012028185D0F05804700320D5B3E80470F5
:10005E00075002B2D50202C092D5EC0460F7E4CC90
:10006E00C0E0C398F8603B94186008400DD0E0FBE8
:10007E00020298E4FBFAC9FC8028E830E406E4C9E1
:10008E00FBE4CAFCE830E305E4C9CACBFCE854073C
:10009E006010F8C3E913F9EA13FAEB13FBEC13FC47
:1000AE00D8F130F52FC3E49CFCEF9BFFEE9AFEEDEA
:1000BE0099FDD0E0FBEF4E4D4C701222DB03020295
:1000CE00BDEC2CFCEF33FFEE33FEED33FDED30E7F0
:1000DE00EB020298EF2BFFEE3AFEED39FDD0E0FB7E
:1000EE0050130BBB00030202C0ED13FDEE13FEEF27
:0800FE0013FFEC13FC02029851
:10010600EC4D6011E8497017ED33EC3304600DE4F3
:10011600FCFFFEFD22E933E8330470F80202B61252
:10012600028158046009E4CC248150062850090253
:1001360002C02840030202BDC0E0EB4A7044B98009
:1001460006D0E0FB0202ACEF4E701CBD8008EBFF50
:10015600EAFEE9FD80EBE98DF0A4FEE5F00201EF91
:10016600E9CDF9EAFEEBFFEF89F0A4FCE5F0CE89D4
:10017600F0A42EFFE435F0CD89F0A42DFEE435F091
:100186008067EF4E7005BD80D780C3EF8BF0A4ACBF
:10019600F0EE8BF0A42CFCE435F0F8EF8AF0A42CFA
:1001A600E5F038FCE433CB8DF0A42CFCE5F03BF80D
:1001B600EE8AF0A42CFCE5F038F8E433CF89F0A4FD
:1001C6002CFCE5F038CF3400CE89F0A42FFFE5F003
:1001D6003EFEE433C98DF0A42EFEE5F039CD8AF05B
:1001E600A42FFFE5F03EFEE43DFD33D0E0FB5007D3
:1001F6000BBB000F0202C0EC2CFCEF33FFEE33FE0C
:06020600ED33FD02029839
:10020C0075F020800E75F010800575F0087D007E6D
:10021C00007F003392D530D503120320EC3340100D
:10022C00EF33FFEE33FEED33FDEC33FCD5F0ED2276
:0E023C00E5F0247EA2D513CC92E7CDCEFF22B2
:10024A00EDD2E7CD33EC3392D524814006E4FFFEAC
:10025A00FDFC22FCE4CFCECDCC24E0501174FF800B
:10026A00EDC3CC13CCCD13CDCE13CECF13CF0470A8
:07027A00F030D5DE02032085
:10028100E9D2E7C933E833F892D5EDD2E7CD33ECC3
:0702910033FC5002B2D5223C
:10029800EC30E7100FBF000C0EBE00080DBD0004C7
:1002A8000BEB6014A2D5EB13FCED92E7FD2274FF73
:1002B800FCFDFEFF22E480F8A2D574FF13FC7D80CC
:0302C800E480EFE0
:030000000204C92E
:0C04C900787FE4F6D8FD7581480205102C
:1002CB00BC000BBE0029EF8DF084FFADF022E4CC17
:1002DB00F875F008EF2FFFEE33FEEC33FCEE9DECE0
:1002EB00984005FCEE9DFE0FD5F0E9E4CEFD22ED26
:1002FB00F8F5F0EE8420D21CFEADF075F008EF2F70
:10030B00FFED33FD4007985006D5F0F222C398FD60
:05031B000FD5F0EA22FD
:0E032000C3E49FFFE49EFEE49DFDE49CFC22EE
:1004D50002032EE493A3F8E493A34003F68001F20C
:1004E50008DFF48029E493A3F85407240CC8C33328
:1004F500C4540F4420C8834004F456800146F6DFF7
:10050500E4800B0102040810204080900774E47E0B
:10051500019360BCA3FF543F30E509541FFEE493EB
:10052500A360010ECF54C025E060A840B8E493A3B2
:10053500FAE493A3F8E493A3C8C582C8CAC583CADD
:10054500F0A3C8C582C8CAC583CADFE9DEE780BE95
:0107A6000052
:00000001FF
